:020000040800F2
:1000000060060020B10100087D02000875020008AA
:100010007902000863020008D10300080000000014
:100020000000000000000000000000008102000845
:1000300067020008000000007F0200086D0300084E
:10004000CB010008CB010008CB010008CB01000860
:10005000CB010008CB010008CB010008CB01000850
:10006000CB010008CB010008CB010008CB01000840
:10007000CB010008CB010008CB010008CB01000830
:10008000CB010008CB010008CB010008CB01000820
:10009000CB010008CB010008CB010008CB01000810
:1000A000CB010008CB010008CB010008CB01000800
:1000B000CB010008CB010008CB010008CB010008F0
:1000C000CB010008CB010008CB010008CB010008E0
:1000D000CB010008CB010008CB010008CB010008D0
:1000E000CB010008CB010008CB010008CB010008C0
:1000F000CB010008CB010008CB010008CB010008B0
:10010000CB010008CB010008CB010008CB0100089F
:10011000CB010008CB010008CB010008CB0100088F
:10012000CB010008CB010008CB010008CB0100087F
:1001300000F002F800F02CF80AA090E8000C8244CD
:100140008344AAF10107DA4501D100F021F8AFF2AA
:10015000090EBAE80F0013F0010F18BFFB1A43F0A5
:1001600001031847040400001404000000230024C5
:1001700000250026103A28BF78C1FBD8520728BFB7
:1001800030C148BF0B6070471FB51FBD10B510BD13
:1001900000F031F81146FFF7F7FF00F01BF900F00F
:1001A0004FF803B4FFF7F2FF03BC00F053F8000070
:1001B0000948804709480047FEE7FEE7FEE7FEE7FB
:1001C000FEE7FEE7FEE7FEE7FEE7FEE70448054937
:1001D000054A064B70470000710300083101000812
:1001E0006000002060060020600200206002002005
:1001F000704770477047754600F028F8AE46050016
:100200006946534620F00700854618B020B5FFF731
:10021000DDFFBDE820404FF000064FF000074FF033
:1002200000084FF0000B21F00701AC46ACE8C00914
:10023000ACE8C009ACE8C009ACE8C0098D4670471D
:100240000446AFF300802046FFF7ABFF004870473D
:100250000000002001491820ABBEFEE72600020086
:10026000704700BFFEE77047002100E0491C814253
:10027000FCD3704700BFFEE700BFFEE77047704742
:10028000704710B500F002F810BD00000CB500205A
:10029000019000903348006840F480303149086094
:1002A00000BF3048006800F4003000900198401C06
:1002B0000190009818B90198B0F5A06FF1D12948C4
:1002C000006800F4003010B10120009001E000202F
:1002D00000900098012843D12348006840F01000A6
:1002E000214908600846006820F0030008600846BD
:1002F000006840F0020008601A48406819494860E8
:100300000846406848600846406840F4806048609D
:100310000846406820F47C1048600846406840F475
:10032000E81048600846006840F08070086000BF30
:100330000C48006800F000700028F9D009484068B7
:1003400020F00300074948600846406840F002007A
:10035000486000BF0348406800F00C000828F9D14D
:100360000CBD000000100240002002407047000059
:1003700010B51348006840F00100114908600846B4
:100380004068104908400E494860084600680E4918
:1003900008400B4908600846006820F48020086087
:1003A0000846406820F4FE0048604FF41F00886053
:1003B000FFF767FF4FF000600449086010BD0000C0
:1003C000001002400000FFF8FFFFF6FE08ED00E01D
:1003D00000BFFEE75F48806940F008005D49886122
:1003E0005D48006820F470005B49086008460068BA
:1003F00040F4401008605748806940F0400055497B
:1004000088615648006820F4700054490860084626
:10041000006840F440100860202050491031086006
:100420004C48806940F040004A4988614B48006868
:1004300020F47040494908600846006840F40040D4
:10044000086046481030006840F008004349103109
:1004500008604048806940F040003E4988613F485C
:10046000006820F470603D4908600846006840F468
:100470000060086039481030006840F004003749D7
:10048000103108603348806940F0040031498861C8
:100490003348006820F00F003149086008460068C2
:1004A00040F0080008602B48806940F008002949A6
:1004B00088612948001D006820F00F002649091DA9
:1004C00008600846006840F00300086040E02348E8
:1004D0000830006800F0040020B920201E491431C3
:1004E000086003E020201C49103108601B480830D8
:1004F000006800F0080088B918480C30006800F067
:10050000200020B1202015491431086003E020208C
:100510001249103108601348FFF7A6FE1048083052
:10052000006800F0010098B10B480C30006800F43E
:10053000807028B14FF4807007491431086004E0DE
:100540004FF480700449103108600648FFF78CFEB4
:10055000BDE7000000100240000C014000180140FF
:1005600000080140404B4C007805000800000020C6
:08057000600600006C010008A8
:04000005080001B13D
:00000001FF
