:020000040800F2
:10000000780700200D020008851400083506000856
:1000100081140008F10400080D170008000000001A
:10002000000000000000000000000000891400082B
:100030005905000800000000871400087515000825
:1000400027020008270200082702000827020008EC
:100050002702000827020008690500082702000897
:1000600009060008270200082702000827020008E6
:1000700027020008270200082702000827020008BC
:1000800027020008270200082702000827020008AC
:10009000270200082702000827020008270200089C
:1000A000270200082702000827020008270200088C
:1000B00027020008F5150008791600082702000835
:1000C000270200082702000827020008270200086C
:1000D000270200082702000827020008270200085C
:1000E00095050008270200082702000827020008DB
:1000F000270200082702000827020008270200083C
:10010000270200082702000827020008270200082B
:10011000270200082702000827020008270200081B
:10012000270200082702000827020008270200080B
:1001300000F002F800F041F80AA090E8000C8244B8
:100140008344AAF10107DA4501D100F036F8AFF295
:10015000090EBAE80F0013F0010F18BFFB1A43F0A5
:10016000010318475829000078290000103A24BFDD
:1001700078C878C1FAD8520724BF30C830C144BF0C
:1001800004680C607047000000230024002500264E
:10019000103A28BF78C1FBD8520728BF30C148BFEA
:1001A0000B607047642900F09980002070471FB5EC
:1001B00000F0E5F81FBD10B510BD00F062F9114662
:1001C000FFF7F5FF01F02EFB00F080F903B4FFF715
:1001D000F2FF03BC00F086F90B49D1F800C04A6871
:1001E0005CF8043B1068184442F8040B8C4528BFA7
:1001F000A1F1DC0C8A4228BFA1F1DC02C1F800C0E9
:100200004A6020F0004070470C01002009488047F8
:1002100009480047FEE7FEE7FEE7FEE7FEE7FEE7E8
:10022000FEE7FEE7FEE7FEE704480549054A064B00
:100230007047000095150008310100087801002082
:100240007807002078030020780300200FB41CB545
:10025000074B06AA7B4469460090059800F0F9F820
:100260000020694600F008F91CBC5DF814FB000092
:10027000210200002DE9F0410E46044600202062D4
:100280002046E168884730B3252805D0D4E901210C
:100290009047206A401CF2E7E16820460027884723
:1002A000050018D0A5F14100192802D820354FF4D7
:1002B00000673246294620462760FFF773FF40B1AA
:1002C000012804D0F61D26F007060836D8E7361DAB
:1002D000D6E72846DAE7206ABDE8F0812DE9F0414B
:1002E0000646002410687529314616A510D0AFF3D4
:1002F0000080002802DA404213A507E031688A072F
:1003000001D512A502E0490704D511A5012401E099
:10031000AFF3008000210A2206F1240709E0B0FBB8
:10032000F2FCB0FBF2F302FB1C00303078541846AC
:10033000491C0028F3D123462A463046BDE8F04147
:1003400000F029B8000000002D0000002B00000084
:10035000200000000B4910B5A1F17C020A4CC2E953
:100360003712372106E000EB104342F82130074BEB
:1003700000FB03400B1EA1F10101F4DC10BD0120C4
:10038000E8E70000AC000020E119D666CD0D0100C1
:100390007047704770472DE9F0470D4699469246E1
:1003A000044600F124080168880604D5E06921F0BC
:1003B0001001216000E00120A84201DD471B00E0A0
:1003C0000027A1697A1902EB0900081AA0612078B8
:1003D000C00602D42046AFF30080002608E0D4E92E
:1003E00001211AF806009047206A401C761C206202
:1003F0004E45F4DB2078C0060AD52046AFF30080D6
:1004000006E0D4E9012130209047206A401C206298
:10041000381EA7F10107F4DC07E0D4E9012118F840
:1004200005009047206A401C2062281EA5F10105A6
:10043000F3DC2046AFF300802078000602D50220CE
:10044000BDE8F0870120FBE701694A1C02610878DA
:10045000704700B58FB0CDE9013100210591054904
:100460007944CDE9031011466846FFF703FF0FB04A
:1004700000BD0000E5FFFFFF0A6802F8010B0A60FB
:100480007047754600F028F8AE46050069465346A9
:1004900020F00700854618B020B5FFF7C5FEBDE87F
:1004A00020404FF000064FF000074FF000084FF0DB
:1004B000000B21F00701AC46ACE8C009ACE8C0096C
:1004C000ACE8C009ACE8C0098D4670470446AFF3FC
:1004D00000802046FFF77AFE004870471401002094
:1004E0007047000001491820ABBEFEE7260002005D
:1004F00000BFFEE738B50324A02050231A46194652
:1005000000904FF6FF7000F0F1FA1FE0E3B25022C6
:1005100011464EF6A20000F0F9FB08E00D48007805
:10052000642190FBF1F201FB120000B900E0F5E755
:1005300000BFA02050231A46194600904FF6FF70C6
:1005400000F0D4FA04B902E0601E84B2DEE700BF16
:1005500038BD0000000000207047002100E0491C69
:100560008142FCD37047000008B5012007490860AC
:100570004FF4A0700023F022194600904FF6FF7050
:1005800000F0B4FA01200249086008BD0400002010
:100590001404014010B517480068F0B11548006810
:1005A00009281AD214480068400813490860134902
:1005B00008601348806800F4806020B10846006835
:1005C00040F0800008600D4800680B490860094849
:1005D0000068401C0749086004E006480068401CA9
:1005E000044908600A20FFF7B8FF4FF4006005498E
:1005F000086010BD280000202000002024000020FA
:10060000001001401404014008B5022007490860A9
:100610004FF4A0700023F022194600904FF6FF70AF
:1006200000F064FA04200249086008BD04000020BC
:100630001404014000BFFEE71348806940F0080041
:10064000114988611148006820F470000F49086062
:100650000846006840F4401008600B48806940F08C
:100660004000094988610A48006820F47000084980
:1006700008600846006840F44010086020200449E3
:10068000103108607047000000100240000C01406B
:1006900000180140014601F007021202054B1868DC
:1006A0004FF6FF031840044B18431043014B1860EA
:1006B000704700000CED00E00000FA051F4880695B
:1006C00040F010001D4988611D48406820F47F40BB
:1006D0001B4948600846406840F408404860C81418
:1006E0000861401008611548806940F00100134915
:1006F00088611448006920F4704112480161006962
:1007000040F400510F4801610F48006840F4006058
:100710000D4908600C480C30006840F400600A493C
:100720000C3108606521094801700948006840F4EF
:1007300080704FF0E021C1F80401704700100240C2
:1007400000100140000001400004014028E400E0E6
:1007500004E100E000204FF0E02108610348486117
:100760000846006940F0030008617047905F01008F
:100770002DE9F84305460E4617464FF000090024C0
:100780004FF0100800BF0BE008FB04F1463188B2BF
:10079000334622462946009700F0D2FB601CC4B2C3
:1007A000032CF1DBBDE8F8832DE9F04F9FB08246C2
:1007B0000D46174600264FF0030B05201E9008201B
:1007C0001D900A201C90322400201B9001200190D3
:1007D0004FF000084FF00009FFF78CFE4FF4A070B7
:1007E0000023F022194600904FF6FF7000F07EF9CA
:1007F00000BF3FE1019810B9304600F0ABFF002088
:1008000003464FF6FF724FF4967100909DA000F0E2
:100810004FF9B8F1000F0DDA4FF000091C9800FBFA
:1008200009F09A4909684843C0F1FA011B98A1EB05
:1008300000080AE01C9800FB09F094490968484345
:10084000C0F1FA011B98A1EB0008002C00DA082483
:10085000A0B22B4602226421009500F0D9FB083C8F
:10086000FFF7BAFC1F2190FBF1F201FB1200C83028
:10087000874908600BFB06F1C1F18C0188B22B4659
:1008800000225146009700F0C3FB814A009712886E
:1008900091B21E9A7243C2F18C0290B22B46002292
:1008A00000F0B6FB7A4A00971288143291B21D9A72
:1008B0007243C2F18C0290B22B46002200F0A8FBDA
:1008C0004FF4A0704FF49173F0220021009008467D
:1008D00000F00CF9A0B22B4601226421009700F031
:1008E00097FB1FFA88F02B4603226421009700F043
:1008F0008FFBBAE0674800781E2190FBF1F201FB04
:10090000120080BB0BFB06F1C1F18C0188B22B46B3
:1009100000225146009500F07BFB5D4A009512884D
:1009200091B21E9A7243C2F18C0290B22B46002201
:1009300000F06EFB564A00951288143291B21D9A4F
:100940007243C2F18C0290B22B46002200F060FB91
:100950001FFA88F02B4603226421009500F058FB13
:1009600000201B9082E0FFE74A480078142190FBAA
:10097000F1F201FB120068B9A0B22B4601226421FA
:10098000009500F045FBA0B22B460222642100979F
:1009900000F03EFB404800680B284CD33F480068FD
:1009A000692835D1A0B22B4601226421009500F0C0
:1009B0002FFBA0B22B4602226421009500F028FBF9
:1009C00004F11E0188B22B4602229621009700F006
:1009D0001FFB08E02F480078142190FBF1F201FB87
:1009E000120000B900E0F5E700BF04F11E0188B273
:1009F0002B4602229621009500F00AFB04F13201F9
:100A000088B22B4602226421009700F001FB3234A9
:100A1000002022490860204908604FF40060204906
:100A2000086000201B901FFA88F02B4603226421E7
:100A3000009500F0EDFA32461AA102A8FFF706FC75
:100A4000002003464FF6FF724FF49671009002A803
:100A500000F02EF8A8EB0400002801DB014600E0BE
:100A60004142042901DA0020019043E700BF09F167
:100A70000109761C42F228308642FFF6BBAE1FB059
:100A8000BDE8F08F53636F72653A200008000020C4
:100A9000140000200000002028000020200000207A
:100AA0001404014053636F72653A2025640000000E
:100AB0002DE9F84F0546884616461F46DDF8289072
:100AC0004FF0000B00244FF0080A0AE000972A5D5F
:100AD0000AFB049188B23346414600F0BBF9601C22
:100AE000C4B2285D0028F1D1BDE8F88FF0B5074603
:100AF0000C46059D00262A2000F0FCFA201200F08A
:100B0000F3FAE0B200F0F0FAA118491EC1F30F2089
:100B100000F0EAFAA118491EC8B200F0E5FA2B204D
:100B200000F0E8FA181200F0DFFAD8B200F0DCFAB0
:100B30005919491EC1F30F2000F0D6FA5919491E60
:100B4000C8B200F0D1FA2C2000F0D4FA00BF03E0C4
:100B5000384600F0C9FA761C02FB05F0B042F7D81F
:100B6000F0BD000000B55548406940F4807053491D
:100B700048610846806940F008008861084680693D
:100B800040F0200088610846806940F0400088619C
:100B90000846806940F4807088614948006820F008
:100BA0000F00474908600846006840F003000860ED
:100BB00044480068444908404249086008460068C3
:100BC000424908433F490860081F006800F0FF20C1
:100BD000091F08600846006840F0BB1008603C48E8
:100BE000006800203A4908600846006840F0BB30C1
:100BF0000860081F006820F07040091F0860084660
:100C0000006840F0304008603248406820F47020AE
:100C1000304948600846406840F430204860084643
:100C2000006820F00F0008600846006840F00B00E4
:100C3000086000204FF020418861C86126490860A3
:100C40004FF02040806940F480504FF0204188618F
:100C50000846806940F4804088610846806940F019
:100C6000100088610846C069C8610846C06940F044
:100C70000100C8610846C06940F47060C861164848
:100C80000068C1F81C0114480068C1F81C0108463E
:100C9000D0F81C0140F44070C1F81C01084680697E
:100CA00040F00100886100F019F805480C30006838
:100CB00040F0010002490C31086000BD0010024004
:100CC000000C01400414014000F0FF00BB0B00BB0E
:100CD00004180140002001401C0100A000B50120C3
:100CE00000F008FA112000F005FA3A2000F002FAAC
:100CF000552000F0F9F9292000F0FCF9362000F029
:100D0000F9F9CA2000F0F0F900BD00002DE9F84F14
:100D100083460C4691469A46A02050231A4619460F
:100D200000904FF6FF70FFF7E1FE204600F047FF0E
:100D300007460022454B00F06DFE054600F012FF0D
:100D400084B209F10A001FFA80F9CAEBCA004049CF
:100D5000085C01280BD10A20009009F1820083B2BF
:100D600004F10A0081B237225846FFF7BFFECAEBF2
:100D7000CA0037490844407801280BD13720009039
:100D800009F14B0083B204F1410081B20A225846B6
:100D9000FFF7ACFECAEBCA002D4908448078012851
:100DA0000BD13720009009F10A0083B204F1410011
:100DB00081B20A225846FFF799FECAEBCA002449BD
:100DC0000844C07801280AD10A201FFA89F300904C
:100DD00004F10A0081B237225846FFF787FECAEBBA
:100DE000CA001B4908440079012809D13720009026
:100DF00009F10A0083B2A1B20A225846FFF776FE33
:100E0000CAEBCA00124908444079012809D13720A9
:100E1000009009F14B0083B2A1B20A225846FFF7B5
:100E200065FECAEBCA000A490844807901280BD143
:100E30000A20009009F1410083B204F10A0081B256
:100E400037225846FFF752FEBDE8F88F00000440F5
:100E5000962900082DE9F04F04460D4616469A469D
:100E6000DDF8249010224FF0080B202E01DB7F2E9E
:100E700001DDBDE8F08FA6F12000C6B22A2000F007
:100E800039F9201200F030F9E0B200F02DF904EB4E
:100E90000B01491EC1F30F2000F026F904EB0B01F2
:100EA000491EC8B200F020F92B2000F023F92812C7
:100EB00000F01AF9E8B200F017F9A918491EC1F3B9
:100EC0000F2000F011F9A918491EC8B200F00CF962
:100ED0002C2000F00FF9002327E04FF000081DE060
:100EE000002715E0154800EB0610012101EB470132
:100EF000C91A405C40FA08F000F0010018B15046F1
:100F000000F0F2F802E0484600F0EEF8781CC7B2B4
:100F10005F45E7DB08F1010000F0FF0802EBD2714A
:100F2000B8EB610FDCDB581CC3B2D11702EB517177
:100F3000B3EBE10FD1DB00BF9BE70000A623000865
:100F40002DE9F04F04460D4690469A46DDF8249070
:100F5000102293462A2000F0CDF8201200F0C4F8A9
:100F6000E0B200F0C1F804EB0B01491EC1F30F2001
:100F700000F0BAF804EB0B01491EC8B200F0B4F857
:100F80002B2000F0B7F8281200F0AEF8E8B200F01D
:100F9000ABF8A918491EC1F30F2000F0A5F8A91855
:100FA000491EC8B200F0A0F82C2000F0A3F80027DA
:100FB00023E000261AE0002314E0144800EB481058
:100FC000012101EB4301C91B405C304100F00100ED
:100FD00018B1504600F088F802E0484600F084F866
:100FE000581CC3B25B45E8DB701CC6B202EBD27181
:100FF000B6EB610FDFDB781CC7B2D11702EB517182
:10100000B7EBE10FD5DBBDE8F08F0000DC2900086D
:101010002DE9FF5F05460E4693461024A2462A207E
:1010200000F068F8281200F05FF8E8B200F05CF811
:1010300005EB0A01491EC1F30F2000F055F805EB3E
:101040000A01491EC8B200F04FF82B2000F052F8F8
:10105000301200F049F8F0B200F046F83119491E9C
:10106000C1F30F2000F040F83119491EC8B200F05A
:101070003BF82C2000F03EF84FF000092AE04FF03A
:1010800000081EE0002716E0164800EB4B10012177
:1010900001EB4701A1EB0901405C40FA08F000F0C8
:1010A000010018B1039800F01FF802E00E9800F05C
:1010B0001BF8781CC7B25745E6DB08F1010000F0C9
:1010C000FF0804EBD471B8EB610FDBDB09F1010021
:1010D00000F0FF09E11704EB5171B9EBE10FCEDB32
:1010E000BDE8FF9F3C2A00080149088070470000C6
:1010F0000008006C0149088070470000FE07006C82
:101100002DE9F05F05460E46300100F0EDFF814607
:10111000284905FB01F000F0E7FF8246494600F050
:1011200001FF0746384600F0BFFF84B2204600F0BA
:10113000DBFF8346394601F0B7F882464FF0834122
:1011400000F0E6FF814600F0AFFF80464FF6FF70EB
:1011500000EA041404EB080084B21748806940F0E8
:101160000400154988610846806940F48040886120
:101170001248006820F47F60104908600846006843
:1011800040F40B6008600C48C06840F480400A4995
:10119000C8600846C06820F48040C86008480480E1
:1011A000001D008842F2080108430549091D088016
:1011B000BDE8F09F40420F000010024004080140CB
:1011C000083801402DE9F05F05460E46300100F079
:1011D0008BFF8146284905FB01F000F085FF824620
:1011E000494600F09FFE0746384600F05DFF84B296
:1011F000204600F079FF8346394601F055F88246D3
:101200004FF0834100F084FF814600F04DFF80469F
:101210004FF6FF7000EA041404EB080084B217488C
:10122000806940F00400154988610846C06940F4AF
:101230000030C8611248006820F47F4010490860FF
:101240000846006840F40B4008600C48006940F410
:1012500000300A4908610846006920F4003008613E
:1012600008480480001D008842F20801084305492F
:10127000091D0880BDE8F09F40420F0000100240A9
:10128000000801400844004007210020234A52681A
:10129000234B1A40214B5A601A461268214B1A40C0
:1012A0001E4B1A601A46126842F480321A6000BF60
:1012B0001A4A1268520C002AFAD04FF48062174B77
:1012C0005A601A46526842EA81425A601A46526887
:1012D00042F480325A60144A126842F03202124BD1
:1012E0001A600E4A126842F080720C4B1A6000BFFE
:1012F0000A4A1268520E002AFAD0084A526842F08E
:101300000202064B5A6005E0044A5268C2F38700A5
:1013100000F003000228F7D17047000000100240DF
:101320000000FFF8FFFFF6FE00200240234880691E
:1013300040F04000214988612148006820F4706035
:101340001F4908600846006840F4006008600420F7
:101350001B49103108601948806940F001001749A5
:1013600088611848806820F47060164988600846D3
:10137000806840F4806088601348006840F0040092
:101380001149086010480C30006840F004000E4914
:101390000C31086065210D4801700D48006820F48B
:1013A00080704FF0E021C1F800010846D0F800013C
:1013B00040F48070C1F80001704700000010024046
:1013C00000180140000001400004014008E400E072
:1013D00000E100E02448806940F00400224988616F
:1013E0002248006820F00F00204908600846006885
:1013F00040F0080008601D480C30006840F0100004
:101400001A490C3108601848806940F001001649FB
:1014100088611748806820F00F00154988600846E9
:10142000806888601348006840F001001149086036
:1014300010480C30006840F001000E490C31086083
:1014400095210D4801700D48006820F040004FF0D4
:10145000E021C1F800010846D0F8000140F040004A
:10146000C1F8000170470000001002400008014070
:10147000000001400004014006E400E000E100E05B
:1014800000BFFEE770477047704710B500F002F8E4
:1014900010BD00000CB5002001900090334800689A
:1014A00040F480303149086000BF3048006800F4E3
:1014B000003000900198401C0190009818B90198E4
:1014C000B0F5A06FF1D12948006800F4003010B1E8
:1014D0000120009001E0002000900098012843D1F5
:1014E0002348006840F01000214908600846006861
:1014F00020F0030008600846006840F00200086021
:101500001A484068194948600846406848600846DB
:10151000406840F4806048600846406820F47C10D1
:1015200048600846406840F4E81048600846006893
:1015300040F08070086000BF0C48006800F0007048
:101540000028F9D00948406820F0030007494860A6
:101550000846406840F00200486000BF0348406809
:1015600000F00C000828F9D10CBD0000001002406A
:101570000020024005480078401C044908700448D7
:101580000078401C024908707047000000000020ED
:101590000100002010B51348006840F00100114917
:1015A000086008464068104908400E4948600846EF
:1015B00000680E4908400B4908600846006820F49E
:1015C000802008600846406820F4FE0048604FF420
:1015D0001F008860FFF759FF4FF000600449086062
:1015E00010BD0000001002400000FFF8FFFFF6FEF3
:1015F00008ED00E020201E490860091F0860091D51
:101600000860091F0860081F006880F02000091F9B
:1016100008600846006880F02000086008460068FE
:1016200080F0200008600846006880F02000086014
:101630000846006820F0200008600846006840F076
:10164000200008600846006820F020000860084676
:10165000006840F0200008600648008820F0010083
:10166000044908800846008820F00100088070477F
:10167000140C0140100400400848008800F00100EC
:1016800028B10748006880F0200005490860034839
:10169000008820F0010001490880704710080040D0
:1016A0000C18014010B50246002025E0012A02D1A5
:1016B0000B5C144C2380022A02D10B5C124C238059
:1016C00000BF104B1B1F1B8803F08003002BF8D0BA
:1016D00000BF0D4B1B1F1B8803F08003002BF8D0AD
:1016E00000BF084B1B1F1B88DB01002BF9D0FF2814
:1016F00000D104E0431CD8B20B5C002BD6D100BF54
:1017000010BD0000043801400444004000BFFEE763
:1017100008B519E04FF4A0700023F022194600909C
:101720004FF6FF70FFF7E2F9002003464FF6FF7215
:101730004FF49671009005A0FFF7BAF900224FF61A
:10174000FF71FA20FFF730F8E4E7000053636F728F
:10175000653A20009AB00446621E22A101A8FEF755
:1017600075FD01A90120FFF79DFF4FF48C70002348
:10177000FA22194600904EF6A200FFF7B7F964204E
:101780004EF6A2030022962100901BA0FFF790F9CD
:1017900014204EF6A20300228221009018A0FFF729
:1017A00087F920201B4908601AE01B4800680B28B5
:1017B00016D31A480068692812D1184800686928A9
:1017C0000ED14FF4A0700023F022194600904FF67E
:1017D000FF70FFF78BF900201149086000F022F834
:1017E000E3E700004C6F73652C2053636F72653A1A
:1017F000202564200A0000004C6F73652100000062
:101800005072657373203120746F20726573746138
:1018100072742E00140C01402800002020000020CB
:101820000400002008B5FEF707FFFFF72DFD4FF479
:1018300016514820FFF764FC4FF416512420FFF79F
:10184000C1FC0520FEF726FFFEF738FFFEF7F4FE89
:10185000FFF788F9FEF77EFFFFF768FDFFF7BAFD97
:1018600079E020203C4908603C4908603C48006819
:1018700000284ED1462000234FF6FF7281000090D1
:1018800038A0FFF715F900224FF6FF71FA20FEF796
:101890006FFF462000234FF6FF72E621009034A030
:1018A000FFF706F9462000234FF6FF72D221009081
:1018B00033A0FFF7FDF8462000234FF6FF72BE214C
:1018C000009032A0FFF7F4F8002003464FF6FF72B5
:1018D0009621009031A0FFF7EBF8002003464FF669
:1018E000FF727821009034A0FFF7E2F80020034651
:1018F0004FF6FF726421009034A0FFF7D9F8002062
:1019000003464FF6FF725021009037A0FFF7D0F842
:1019100021E013480068012810D13A4908603AA133
:10192000FFF7C0FE4FF4A0700023F022194600908C
:101930004FF6FF70FFF7DAF8FFF7EAFE0848006895
:10194000022808D130A10120FFF7ACFE02202D496A
:101950000860FFF7DDFE84E7100C0140101801401D
:101960000400002047726F757020313900000000BC
:101970005349443A20313135353132343938330026
:10198000446572656B204950000000005349443A99
:101990002031313535313434363638005072657384
:1019A00073203120746F206A756D7020696E207409
:1019B00068652067616D6500446966666963756C7A
:1019C0007479204C6576656C733A200050726573AB
:1019D00073206B6579557020666F7220656173792D
:1019E000206D6F64650000005072657373206B6535
:1019F000793220666F722068617264206D6F646551
:101A0000000000000800002047616D6520537461EC
:101A100072740A0010B591EA030F48BF83F00043C7
:101A200000F13C81841A71EB030C05D2121943EBCF
:101A30000C03001B61EB0C01DFF824E14FEA1154A9
:101A4000A4EB135C1EEA430F18BF9EEA445F73D0F9
:101A500023EA0E03DCF1200E21EA045143F4801343
:101A600032D322FA0CFE10EB0E0023FA0CFE41EBEF
:101A70000E01CCF1200E03FA0EFE10EB0E0051F118
:101A80000001B1F5801FCCF1200E32D201EB0451E0
:101A900012FA0EF2BDE8104058BF7047401C38BF24
:101AA0005FEA420218BF7047002814BF20F001000F
:101AB00041F100014FEA410313F5001F38BF7047A1
:101AC000A1F1C04100F0DCB8012A43EB0302ACF104
:101AD000200CDCF11F0E32BF4FF0000E23FA0CF386
:101AE00010EB030041EB0451B4EB115FD0D0A1EB3C
:101AF000045101F5801149085FEA300001EB0451FF
:101B00000ED350F1000038BF12FA0EFE08D1BDE826
:101B10001040C9E7401C38BF5FEA4202CAD1C3E7A0
:101B2000BDE810404FEA410313F5001F38BF70476E
:101B3000A1F1C04100F0A4B89EEA445F08D011EAC8
:101B40005E0FBDE8104004BF01F000410020704767
:101B5000BDE8104070B500F045F800BF64FBBE3E24
:101B60000000E0FF4FEA1153A3F58063D3F11E0399
:101B7000A8BFD3F1200C08DB4FF0004242EAC1229B
:101B800052EA505232FA03F0704709420BD4102B3C
:101B9000C4BF0020704703F5787CBCF1FF3F05D03F
:101BA0004FF0FF3070474FF00000704770B500F005
:101BB00019F800BF4992248000207047F0E7B0FA7E
:101BC00080F310FA03F10AD0C3F11D0303F580631B
:101BD0004FEA41504FEA035202EBD12170474FF0D8
:101BE000000070470EF1020E2EF0030E5EF8046B3B
:101BF000364205D4012A43EB030515F5001F12D820
:101C0000012841EB010C1CF5001F0CD80ED14FEA46
:101C1000D17C15F5001F0CEB4C0C0CF1020C08BF2D
:101C20004CEBD37C04E04FF0080C01E04FEAD37C8E
:101C30000CEB4C0526FA05F606F00706B6F1040C87
:101C400006D20EEB860CBDE870404CF0010C6047EC
:101C5000DFE80CF0090B02024FF000414FF00000EA
:101C6000A1F5002170BD19461046012851EB010471
:101C700018BFD4F5001484BF002001F0004170BDEE
:101C80000808A0F500114FEA3101704710B591EA3C
:101C9000030F48BF83F000433FF5C4AE841A71EBD5
:101CA000030C07D212198CF0004C43EB0C03001B01
:101CB00061EB0C01DFF8A4E14FEA1154A4EB135CD3
:101CC0001EEA430F18BF9EEA445F00F0B08023EA8B
:101CD0006E03524221EA0451C3EB6E0338BF5B1E10
:101CE000DCF1200E25D322FA0CFE10EB0E0043FA95
:101CF0000CFE41EB0E01CCF1200E03FA0EFE10EBB0
:101D00000E0051F10001CCF1200E29D412FA0EF28E
:101D100001EB0451BDE8104058BF7047401C1CBF88
:101D2000B2F1004F704700280CBF491C20F00100A1
:101D3000704712EB020E43EB030218BF4FF0010E87
:101D40004EEA4202ACF1200CDCF11E0E54D943FAEB
:101D50000CFE10EB0E0051F1FF31CCF11E0ED5D56B
:101D60000EF1010E12FA0EFE404141EB010101EBB2
:101D7000445C5FEA5C5C10D910EBDE7001EB04514F
:101D800038BFBEF1004FBDE8104018BF70470028B3
:101D90000CBF491C20F00100704730D24FEAD42C10
:101DA00011F5001124F400641BD0B1FA81F20B3A52
:101DB000A41AA41ED2F12003914030FA03F3194370
:101DC000904001EBCC71002C01EB0451BDE81040B8
:101DD000A8BF704701F1C0414FF0000001F0004181
:101DE0007047B0FA80F310FA03F100D110BDE41A85
:101DF000173C4805C90AE4E701EB045110BD49103E
:101E000001EB0451BDE810404FEA300002E04FF012
:101E1000000170474A0008BF0042F8D0B2F5001F29
:101E200028BF704701F000414FF0000070479EEA64
:101E3000445F07D011EA5E0FBDE8104004BF0021E7
:101E400000207047BDE8104070B5FFF7CBFE00BF23
:101E500040DFF63E83F00041104670470000E0FF8F
:101E600090EA010F48BF81F0004100F12E82421A32
:101E70003CBF801A89184FEAD0524FF07F4C1CEAC1
:101E8000410FA2EBD15318BF9CEA026F00F03B80D8
:101E90004FF0004C4CEA00204CEA012121FA03FCEF
:101EA00010EB0C0C1ED202F1FF325FEA1C2040EB5B
:101EB000C25038BF70471CF07F0F4FEA400C18BF6C
:101EC000BCF17F4F38BF7047C3F12003994008BF72
:101ED00020F00100BCF17F4F38BF7047A0F1C04037
:101EE00000F0DDB94FEA3C00000A40EBC25028BFC9
:101EF0001CF0FF0F4FEA400CE6D018BFBCF17F4F3B
:101F000038BF7047EAE79CEA026F05D010EA5C0F21
:101F100008BF00F00040704710B500F07AF900BF2C
:101F200064FBBE3E4FF47F0C1CEAD0121EBF1CEABD
:101F3000D11392EA0C0F93EA0C0F00F0858090EA1F
:101F4000010F48BF42F4807240F4000C41F40000DD
:101F50002CF07F4120F07F4000B58142A2EB0302CC
:101F60000FF2081CACEB504EC0F100009EF800E0F0
:101F70004FEA4E0E00FB0EFC38BF49004FEA2C1C06
:101F800002F5FA020CFB0EF34FEACE1E4FEA112CBB
:101F90004FEAC1210EEB635E42EB22420EFB0CFCCA
:101FA0004FEA1C5300FB03114FEA112C4FEA013199
:101FB0000EFB0CFC4FEADC4C00FB0C11C14228BFAD
:101FC00009184CEB03335DF804EB10EB410143EBD4
:101FD000C250B2F57C0F38BF704729D512F0F00F10
:101FE0001CBF00F1C04000F00040704700818283B8
:101FF0008485868788898B8C8D8E8F919293959618
:1020000097999A9C9D9FA0A2A3A5A7A8AAACAEB0A1
:10201000B2B3B5B7B9BCBEC0C2C5C7C9CCCED1D4A6
:10202000D7D9DCDFE2E6E9ECF0F3F7FAFE000000D6
:102030004FEA400C0CF1807CBCF17E4F28BF70470A
:10204000B0F1C04000F02BB990EA010F0CEAD113B7
:1020500048BF42F48072624538BF634507D213F42B
:102060007F0F16D080EA010000F00040704710B5E5
:1020700000F0CFF8097EFC3E00F005B880EA0100D0
:1020800000F00040704780EA010000F0004000F0DE
:1020900006B912F47F0F04BF0248704780EA0100BE
:1020A00000F0FDB80000C07FC10DD1F19E0206DB3B
:1020B0004FEA002343F0004323FA02F07047004246
:1020C00007D54FEA4001B1F1FE4F02D24FF00000B8
:1020D000704710B500F09DF84992248000207047A9
:1020E0006FEA200070470000B0FA80F310FA03F2A4
:1020F000C3F19D030AD0D90501EB1220530638BF66
:10210000704700F1010008BF20F001007047000097
:102110004FF47F0C1CEAD0121EBF1CEAD11392EAC6
:102120000C0F93EA0C0F00F0478090EA010F48BFB4
:1021300042F480724FF0004C4CEA00204CEA01213E
:1021400002EB0302A0FB0113A2F50002002918BF55
:1021500043F001035B0028BF4FEA330342EB224206
:102160005FEA132C4CEBC2502EBFBCEB436FB2F5B1
:102170007C0F70474FEA036CBCF1004F08BF20F0A2
:102180000100B2F57C0F38BF70470BD582F0FF021B
:1021900012F5803FC8BF704700F1C040D8BF00F0C3
:1021A0000040704700F5000C5FEA4C0C48BF7047D8
:1021B000B0F1C04000F073B890EA010F0CEAD113FF
:1021C00048BF42F48072624538BF634504D280EA5A
:1021D000010000F00040704710B500F01AF800BF91
:1021E0008900013E00F007B800F009B85FEA410C31
:1021F0005FEA1C6C08D080EA010000F050B85FEA8A
:10220000400C5FEA1C6CF6D14FF00040A0F5800056
:1022100070470EF1020E2EF0030E5EF8044B2442BE
:1022200004D44FEA4102B2F17F4F11D84FEA400384
:10223000B3F17F4F0CD80ED14FEAD07CB2F17F4F73
:102240000CEB4C0C0CF1020C08BF4CEBD17C04E005
:102250004FF0080C01E04FEAD17C0CEB4C0324FA60
:1022600003F404F00704B4F1040C06D20EEB840C62
:10227000BDE810404CF0010C6047DFE80CF00708A7
:1022800002024FF00040A0F5800010BD0846420059
:1022900018BFD2F1807288BF00F0004010BDFF214E
:1022A00041EAD050C005704780F0004090EA010F2D
:1022B0007FF5DDAD81F0004100F007B890EA010F35
:1022C00048BF81F000413FF5D2AD421A04D882F0F8
:1022D0000042A0EB020011444FEAD0524FF07F4C75
:1022E0001CEA410FA2EBD15318BF9CEA026F4AD0FF
:1022F0004FF0004C4CEA00204CEA012121FA03FC8B
:10230000B0EB0C0C0FD412F0FE0F36D05FEA4C008D
:102310001DD5001240EBC25038BF70471CF03F0F74
:1023200018BF70470BE0A2F101025FEA1C2040EBEE
:10233000C25038BF70471CF07F0F18BF7047C3F101
:102340002003994014BF401E20F001007047800810
:102350004FEA122308BF7047B0FA80FCA2EB0C02D0
:10236000CCF1280C60FA0CF093EA122F04BF00EBBA
:10237000C25070474FEAC3707047130A5FEADC101F
:1023800008BF7047F6E79CEA026F04D010EA5C0FC2
:1023900008BF0020704710B5FFF73BFF40DFF63E57
:1023A00081F00040704700000000000000000000C5
:1023B0000000000000000000000000001FCC000C26
:1023C000000000000000000008003000600008006D
:1023D000300060000000022003FC1E20022003FCED
:1023E0001E200220000000000E1811043FFF108480
:1023F0000C78000000000F0010840F3800C0077830
:1024000018840078000000780F8410C411240E98FE
:1024100000E400840008080068007000000000006C
:1024200000000000000000000000000007E0181895
:10243000200440020000000040022004181807E0B9
:102440000000000000000240024001800FF0018007
:102450000240024000000080008000800FF80080F1
:102460000080008000000001000D000E0000000050
:10247000000000000000000000800080008000805C
:102480000080008000800000000C000C00000000B4
:10249000000000000000000000060018006001803D
:1024A000060018002000000007F0080810041004BF
:1024B000080807F000000000080408041FFC0004DE
:1024C00000040000000000000E0C10141024104442
:1024D00011840E0C000000000C18100411041104EB
:1024E00012880C700000000000E00320042408247F
:1024F0001FFC0024000000001F9810841104110428
:10250000108810700000000007F008881104110402
:1025100018880070000000001C00100010FC130060
:102520001C001000000000000E38114410841084BC
:1025300011440E38000000000700088C10441044BD
:10254000088807F00000000000000000030C030CE6
:102550000000000000000000000000010106000073
:102560000000000000000000008001400220041074
:10257000080810040000022002200220022002208D
:1025800002200220000000001004080804100220AD
:1025900001400080000000000E001200100C106CC2
:1025A00010800F00000003E00C1813E4142417C47B
:1025B000082807D000000004003C03C41C4007406A
:1025C00000E4001C000410041FFC11041104110499
:1025D0000E880070000003E00C18100410041004B2
:1025E00010081C10000010041FFC1004100410043C
:1025F000080807F0000010041FFC1104110417C4A0
:1026000010040818000010041FFC1104110017C06A
:1026100010000800000003E00C181004100410441F
:102620001C780040000010041FFC10840080008013
:1026300010841FFC10040000100410041FFC100480
:1026400010040000000000030001100110011FFE33
:1026500010001000000010041FFC1104038014641B
:10266000181C1004000010041FFC100400040004D7
:102670000004000C000010041FFC1F0000FC1F00E1
:102680001FFC1004000010041FFC0C04030000E0F9
:1026900010181FFC100007F00808100410041004A4
:1026A000080807F0000010041FFC10841080108040
:1026B00010800F00000007F0081810241024101CD0
:1026C000080A07F2000010041FFC1104110011C0D9
:1026D00011300E0C000400000E1C11041084108434
:1026E00010441C3800001800100010041FFC1004D7
:1026F00010001800000010001FF81004000400046F
:1027000010041FF8100010001E0011E0001C0070E3
:1027100013801C0010001FC0103C00E01F0000E0F0
:10272000103C1FC000001004180C163401C001C07A
:102730001634180C100410001C00130400FC1304C1
:102740001C00100000000804101C10641084130406
:102750001C04101800000000000000007FFE400272
:10276000400240020000000030000C0003800060C6
:10277000001C0003000000004002400240027FFEF7
:1027800000000000000000000000200040004000A9
:1027900040002000000000010001000100010001D4
:1027A0000001000100010000400040002000000086
:1027B00000000000000000000098012401440144D2
:1027C000014400FC000410001FFC00880104010407
:1027D00000880070000000000070008801040104FF
:1027E000010400880000000000700088010401045A
:1027F00011081FFC0004000000F8014401440144DA
:10280000014400C800000000010401040FFC110491
:10281000110411001800000000D601290129012926
:1028200001C90106000010041FFC00840100010022
:10283000010400FC000400000104190419FC000458
:102840000004000000000000000300010101190164
:1028500019FE0000000010041FFC0024004001B419
:10286000010C010400000000100410041FFC00040F
:10287000000400000000010401FC0104010001FC4F
:102880000104010000FC010401FC008401000100BE
:10289000010400FC0004000000F80104010401042C
:1028A000010400F80000010101FF0085010401049A
:1028B000008800700000000000700088010401041E
:1028C000010501FF00010104010401FC0084010471
:1028D000010001800000000000CC0124012401243B
:1028E00001240198000000000100010007F8010424
:1028F000010400000000010001F8000400040004CD
:10290000010801FC0004010001800170000C0010AE
:1029100001600180010001F0010C003001C00030B5
:10292000010C01F0010000000104018C0074017031
:10293000018C01040000010101810171000E0018E9
:1029400001600180010000000184010C0134014498
:102950000184010C000000000000000000000100E4
:102960003EFC400240020000000000000000FFFFAB
:102970000000000000000000400240023EFC010098
:1029800000000000000000006000800080004000A7
:1029900040002000200001010101010100000101AF
:1029A000000000000101000101000101010101001E
:1029B000000100010100000101010001010001010D
:1029C00001000101010101010101000000000101FC
:1029D00001010101010101010100010100000000EC
:1029E0003FFE250025003F0000082F302D407DFCD4
:1029F0002DC02D200020002000000000000000005D
:102A000000000E103BF80A280E3800001C180E209B
:102A100009C00B700C18000000000000000000004E
:102A2000000000000000144017803F881FB014C051
:102A3000000000000000000000000000FC1FF9C7BB
:102A4000F3F7F7F7E7F7EFE7CFE7DFE7DFEFDFCF02
:102A5000DFEFDFCFDFDFCFDFE01FFFFFFF8FFE3EC7
:102A6000C00CDFE1DFF7D010D6FBD6FB96FBB9FA3E
:102A70008FC0CFD7DF53EB18EB7FE07FFF8FFE3F98
:102A8000C00FDFE7DFF0D012D6F9D6F896FBB9FB1E
:102A90008FC0CFDADF59EB1CEB7FE07FFFFFE00058
:102AA000CFFF983FBB8DB74FB79DB71FB29D981F03
:102AB000CE7FE7FFF000FFFFFFFFFFFFDC2A0008EB
:102AC00000000020300000006C0100080C2B000802
:102AD00030000020480700008801000800000000C6
:102AE00000000000000000000000000000000000E6
:102AF000000000000000000010270000000000009F
:0C2B0000000000000000000000000000C9
:040000050800020DE0
:00000001FF
