:020000040800F2
:1000000060060020B10100089D060008B702000844
:100010009906000863020008F107000800000000CC
:10002000000000000000000000000000A106000821
:10003000A9020008000000009F0600088D070008C4
:10004000CB010008CB010008CB010008CB01000860
:10005000CB010008CB010008CB010008CB01000850
:10006000CB010008CB010008CB010008CB01000840
:10007000CB010008CB010008CB010008CB01000830
:10008000CB010008CB010008CB010008CB01000820
:10009000CB010008CB010008CB010008CB01000810
:1000A000CB010008CB010008CB010008CB01000800
:1000B000CB010008CB010008CB010008CB010008F0
:1000C000CB010008CB010008CB010008CB010008E0
:1000D000CB010008CB010008CB010008CB010008D0
:1000E000CB010008CB010008CB010008CB010008C0
:1000F000CB010008CB010008CB010008CB010008B0
:10010000CB010008CB010008CB010008CB0100089F
:10011000CB010008CB010008CB010008CB0100088F
:10012000CB010008CB010008CB010008CB0100087F
:1001300000F002F800F02CF80AA090E8000C8244CD
:100140008344AAF10107DA4501D100F021F8AFF2AA
:10015000090EBAE80F0013F0010F18BFFB1A43F0A5
:1001600001031847400B0000500B0000002300243F
:1001700000250026103A28BF78C1FBD8520728BFB7
:1001800030C148BF0B6070471FB51FBD10B510BD13
:1001900000F031F81146FFF7F7FF00F02BFB00F0FD
:1001A0004FF803B4FFF7F2FF03BC00F053F8000070
:1001B0000948804709480047FEE7FEE7FEE7FEE7FB
:1001C000FEE7FEE7FEE7FEE7FEE7FEE70448054937
:1001D000054A064B704700009107000831010008EE
:1001E0006000002060060020600200206002002005
:1001F000704770477047754600F028F8AE46050016
:100200006946534620F00700854618B020B5FFF731
:10021000DDFFBDE820404FF000064FF000074FF033
:1002200000084FF0000B21F00701AC46ACE8C00914
:10023000ACE8C009ACE8C009ACE8C0098D4670471D
:100240000446AFF300802046FFF7ABFF004870473D
:100250000000002001491820ABBEFEE72600020086
:10026000704700BFFEE7000038B5092416E0E3B28E
:10027000502211464EF6A20000F05EF9094800F047
:1002800014F8A02050231A46194600904FF6FF702C
:1002900000F042F804B902E0601E84B2E7E700BF54
:1002A00038BD0000809698007047002100E0491C8E
:1002B0008142FCD3704700BFFEE70000134880690D
:1002C00040F00800114988611148006820F470006E
:1002D0000F4908600846006840F4401008600B4869
:1002E000806940F04000094988610A48006820F4AC
:1002F0007000084908600846006840F44010086033
:1003000020200449103108607047000000100240AE
:10031000000C014000180140F0B507460C46059D51
:1003200000262A2000F0B2F9201200F0A9F9E0B26C
:1003300000F0A6F9A118491EC1F30F2000F0A0F9A2
:10034000A118491EC8B200F09BF92B2000F09EF9BD
:10035000181200F095F9D8B200F092F95919491E17
:10036000C1F30F2000F08CF95919491EC8B200F0F2
:1003700087F92C2000F08AF900BF03E0384600F02E
:100380007FF9761C02FB05F0B042F7D8F0BD000003
:1003900000B55548406940F48070534948610846AB
:1003A000806940F0080088610846806940F02000BC
:1003B00088610846806940F040008861084680698D
:1003C00040F4807088614948006820F00F00474978
:1003D00008600846006840F0030008604448006870
:1003E00044490840424908600846006842490843B9
:1003F0003F490860081F006800F0FF20091F0860DF
:100400000846006840F0BB1008603C4800680020C7
:100410003A4908600846006840F0BB300860081F91
:10042000006820F07040091F08600846006840F02E
:10043000304008603248406820F4702030494860FD
:100440000846406840F4302048600846006820F0C4
:100450000F0008600846006840F00B0008600020AC
:100460004FF020418861C861264908604FF0204064
:10047000806940F480504FF02041886108468069CF
:1004800040F4804088610846806940F0100088612F
:100490000846C069C8610846C06940F00100C861EB
:1004A0000846C06940F47060C86116480068C1F829
:1004B0001C0114480068C1F81C010846D0F81C0152
:1004C00040F44070C1F81C010846806940F001000A
:1004D000886100F019F805480C30006840F0010010
:1004E00002490C31086000BD00100240000C0140C0
:1004F0000414014000F0FF00BB0B00BB04180140D6
:10050000002001401C0100A000B5012000F0BEF851
:10051000112000F0BBF83A2000F0B8F8552000F0A8
:10052000AFF8292000F0B2F8362000F0AFF8CA206A
:1005300000F0A6F800BD00002DE9F84F83460C46F8
:1005400091469A46A02050231A46194600904FF62D
:10055000FF70FFF7E1FE204600F02FFA0746002269
:10056000454B00F055F9054600F0FAF984B209F15F
:100570000A001FFA80F9CAEBCA004049085C01284A
:100580000BD10A20009009F1820083B204F10A0025
:1005900081B237225846FFF7BFFECAEBCA0037497F
:1005A0000844407801280BD13720009009F14B0016
:1005B00083B204F1410081B20A225846FFF7ACFE33
:1005C000CAEBCA002D490844807801280BD1372096
:1005D000009009F10A0083B204F1410081B20A22BD
:1005E0005846FFF799FECAEBCA0024490844C07870
:1005F00001280AD10A201FFA89F3009004F10A00A9
:1006000081B237225846FFF787FECAEBCA001B4962
:1006100008440079012809D13720009009F10A0027
:1006200083B2A1B20A225846FFF776FECAEBCA008F
:10063000124908444079012809D13720009009F176
:100640004B0083B2A1B20A225846FFF765FECAEBFF
:10065000CA000A490844807901280BD10A20009079
:1006600009F1410083B204F10A0081B237225846F1
:10067000FFF752FEBDE8F88F000004405C0C000854
:1006800001490880704700000008006C014908809B
:1006900070470000FE07006C00BFFEE77047704720
:1006A000704710B500F002F810BD00000CB5002036
:1006B000019000903348006840F480303149086070
:1006C00000BF3048006800F4003000900198401CE2
:1006D0000190009818B90198B0F5A06FF1D12948A0
:1006E000006800F4003010B10120009001E000200B
:1006F00000900098012843D12348006840F0100082
:10070000214908600846006820F003000860084698
:10071000006840F0020008601A48406819494860C3
:100720000846406848600846406840F48060486079
:100730000846406820F47C1048600846406840F451
:10074000E81048600846006840F08070086000BF0C
:100750000C48006800F000700028F9D00948406893
:1007600020F00300074948600846406840F0020056
:10077000486000BF0348406800F00C000828F9D129
:100780000CBD000000100240002002407047000035
:1007900010B51348006840F0010011490860084690
:1007A0004068104908400E494860084600680E49F4
:1007B00008400B4908600846006820F48020086063
:1007C0000846406820F4FE0048604FF41F0088602F
:1007D000FFF767FF4FF000600449086010BD00009C
:1007E000001002400000FFF8FFFFF6FE08ED00E0F9
:1007F00000BFFEE710B5FFF761FDFFF7C9FD034835
:10080000FFF753FDFFF730FD002010BD80841E0070
:1008100010B591EA030F48BF83F0004300F13C811B
:10082000841A71EB030C05D2121943EB0C03001B65
:1008300061EB0C01DFF824E14FEA1154A4EB135CE7
:100840001EEA430F18BF9EEA445F73D023EA0E03EB
:10085000DCF1200E21EA045143F4801332D322FA52
:100860000CFE10EB0E0023FA0CFE41EB0E01CCF156
:10087000200E03FA0EFE10EB0E0051F10001B1F54F
:10088000801FCCF1200E32D201EB045112FA0EF28D
:10089000BDE8104058BF7047401C38BF5FEA4202B5
:1008A00018BF7047002814BF20F0010041F100017B
:1008B0004FEA410313F5001F38BF7047A1F1C04153
:1008C00000F0DCB8012A43EB0302ACF1200CDCF1B0
:1008D0001F0E32BF4FF0000E23FA0CF310EB030093
:1008E00041EB0451B4EB115FD0D0A1EB045101F501
:1008F000801149085FEA300001EB04510ED350F13A
:10090000000038BF12FA0EFE08D1BDE81040C9E75A
:10091000401C38BF5FEA4202CAD1C3E7BDE81040BD
:100920004FEA410313F5001F38BF7047A1F1C041E2
:1009300000F0A4B89EEA445F08D011EA5E0FBDE85B
:10094000104004BF01F0004100207047BDE8104096
:1009500070B500F045F800BF64FBBE3E0000E0FF4C
:100960004FEA1153A3F58063D3F11E03A8BFD3F15F
:10097000200C08DB4FF0004242EAC12252EA5052FA
:1009800032FA03F0704709420BD4102BC4BF002089
:10099000704703F5787CBCF1FF3F05D04FF0FF3086
:1009A00070474FF00000704770B500F019F800BFB5
:1009B0004992248000207047F0E7B0FA80F310FAE3
:1009C00003F10AD0C3F11D0303F580634FEA4150E0
:1009D0004FEA035202EBD12170474FF000007047FD
:1009E0000EF1020E2EF0030E5EF8046B364205D4B3
:1009F000012A43EB030515F5001F12D8012841EB2E
:100A0000010C1CF5001F0CD80ED14FEAD17C15F556
:100A1000001F0CEB4C0C0CF1020C08BF4CEBD37C10
:100A200004E04FF0080C01E04FEAD37C0CEB4C05DE
:100A300026FA05F606F00706B6F1040C06D20EEB10
:100A4000860CBDE870404CF0010C6047DFE80CF00C
:100A5000090B02024FF000414FF00000A1F5002108
:100A600070BD19461046012851EB010418BFD4F59A
:100A7000001484BF002001F0004170BD0808A0F5FB
:100A800000114FEA3101704710B591EA030F48BFDA
:100A900083F000433FF5C4AE841A71EB030C07D218
:100AA00012198CF0004C43EB0C03001B61EB0C01A2
:100AB000DFF8A4E14FEA1154A4EB135C1EEA430FE4
:100AC00018BF9EEA445F00F0B08023EA6E035242F2
:100AD00021EA0451C3EB6E0338BF5B1EDCF1200E2C
:100AE00025D322FA0CFE10EB0E0043FA0CFE41EB6C
:100AF0000E01CCF1200E03FA0EFE10EB0E0051F1A8
:100B00000001CCF1200E29D412FA0EF201EB0451AF
:100B1000BDE8104058BF7047401C1CBFB2F1004FE9
:100B2000704700280CBF491C20F00100704712EBF1
:100B3000020E43EB030218BF4FF0010E4EEA4202D1
:100B4000ACF1200CDCF11E0E54D943FA0CFE10EB74
:100B50000E0051F1FF31CCF11E0ED5D50EF1010E74
:100B600012FA0EFE404141EB010101EB445C5FEAE9
:100B70005C5C10D910EBDE7001EB045138BFBEF1A4
:100B8000004FBDE8104018BF704700280CBF491C3B
:100B900020F00100704730D24FEAD42C11F500113B
:100BA00024F400641BD0B1FA81F20B3AA41AA41EFB
:100BB000D2F12003914030FA03F31943904001EB46
:100BC000CC71002C01EB0451BDE81040A8BF704768
:100BD00001F1C0414FF0000001F000417047B0FA50
:100BE00080F310FA03F100D110BDE41A173C480558
:100BF000C90AE4E701EB045110BD491001EB0451AF
:100C0000BDE810404FEA300002E04FF000017047AD
:100C10004A0008BF0042F8D0B2F5001F28BF704755
:100C200001F000414FF0000070479EEA445F07D09A
:100C300011EA5E0FBDE8104004BF0021002070479C
:100C4000BDE8104070B5FFF7CBFE00BF40DFF63EB9
:100C500083F00041104670470000E0FF01010101F0
:100C6000010100000101000000000101000101007C
:100C70000101010101000001000101000001010169
:100C80000001010001010100010101010101010157
:100C90000000000001010101010101010101010049
:100CA00001010000B40C00080000002060060000F4
:040CB0006C010008CB
:04000005080001B13D
:00000001FF
