:020000040800F2
:1000000060060020B1010008DD0400086902000854
:10001000D90400086302000831060008000000004F
:10002000000000000000000000000000E1040008E3
:100030006702000800000000DF040008CD0500088A
:10004000CB010008CB010008CB010008CB01000860
:10005000CB010008CB010008CB010008CB01000850
:10006000CB010008CB010008CB010008CB01000840
:10007000CB010008CB010008CB010008CB01000830
:10008000CB010008CB010008CB010008CB01000820
:10009000CB010008CB010008CB010008CB01000810
:1000A000CB010008CB010008CB010008CB01000800
:1000B000CB010008CB010008CB010008CB010008F0
:1000C000CB010008CB010008CB010008CB010008E0
:1000D000CB010008CB010008CB010008CB010008D0
:1000E000CB010008CB010008CB010008CB010008C0
:1000F000CB010008CB010008CB010008CB010008B0
:10010000CB010008CB010008CB010008CB0100089F
:10011000CB010008CB010008CB010008CB0100088F
:10012000CB010008CB010008CB010008CB0100087F
:1001300000F002F800F02CF80AA090E8000C8244CD
:100140008344AAF10107DA4501D100F021F8AFF2AA
:10015000090EBAE80F0013F0010F18BFFB1A43F0A5
:1001600001031847FC0400000C05000000230024D4
:1001700000250026103A28BF78C1FBD8520728BFB7
:1001800030C148BF0B6070471FB51FBD10B510BD13
:1001900000F031F81146FFF7F7FF00F04BFA00F0DE
:1001A0004FF803B4FFF7F2FF03BC00F053F8000070
:1001B0000948804709480047FEE7FEE7FEE7FEE7FB
:1001C000FEE7FEE7FEE7FEE7FEE7FEE70448054937
:1001D000054A064B70470000D105000831010008B0
:1001E0006000002060060020600200206002002005
:1001F000704770477047754600F028F8AE46050016
:100200006946534620F00700854618B020B5FFF731
:10021000DDFFBDE820404FF000064FF000074FF033
:1002200000084FF0000B21F00701AC46ACE8C00914
:10023000ACE8C009ACE8C009ACE8C0098D4670471D
:100240000446AFF300802046FFF7ABFF004870473D
:100250000000002001491820ABBEFEE72600020086
:10026000704700BFFEE7704700BFFEE71348806994
:1002700040F00800114988611148006820F47000BE
:100280000F4908600846006840F4401008600B48B9
:10029000806940F04000094988610A48006820F4FC
:1002A0007000084908600846006840F44010086083
:1002B00020200449103108607047000000100240FF
:1002C000000C01400018014010B503460C462A20DE
:1002D00000F0FCF8181200F0F3F8D8B200F0F0F8D3
:1002E000012000F0EDF83F2000F0EAF82B2000F0AC
:1002F000EDF8201200F0E4F8E0B200F0E1F801209F
:1003000000F0DEF8DF2000F0DBF82C2000F0DEF853
:10031000104600F0D5F810BD00B55548406940F4CE
:100320008070534948610846806940F00800886140
:100330000846806940F0200088610846806940F0E6
:10034000400088610846806940F4807088614948AF
:10035000006820F00F00474908600846006840F038
:100360000300086044480068444908404249086066
:1003700008460068424908433F490860081F006872
:1003800000F0FF20091F08600846006840F0BB101D
:1003900008603C48006800203A4908600846006848
:1003A00040F0BB300860081F006820F07040091F53
:1003B00008600846006840F03040086032484068F5
:1003C00020F47020304948600846406840F43020EE
:1003D00048600846006820F00F0008600846006882
:1003E00040F00B00086000204FF020418861C86198
:1003F000264908604FF02040806940F480504FF05B
:10040000204188610846806940F480408861084640
:10041000806940F0100088610846C069C8610846DC
:10042000C06940F00100C8610846C06940F47060CE
:10043000C86116480068C1F81C0114480068C1F87A
:100440001C010846D0F81C0140F44070C1F81C01A2
:100450000846806940F00100886100F019F80548FD
:100460000C30006840F0010002490C31086000BD0A
:1004700000100240000C01400414014000F0FF0095
:10048000BB0B00BB04180140002001401C0100A070
:1004900000B5012000F01AF8112000F017F83A20FA
:1004A00000F014F8552000F00BF8292000F00EF8A9
:1004B000362000F00BF8CA2000F002F800BD000062
:1004C00001490880704700000008006C014908805D
:1004D00070470000FE07006C00BFFEE770477047E2
:1004E000704710B500F002F810BD00000CB50020F8
:1004F000019000903348006840F480303149086032
:1005000000BF3048006800F4003000900198401CA3
:100510000190009818B90198B0F5A06FF1D1294861
:10052000006800F4003010B10120009001E00020CC
:1005300000900098012843D12348006840F0100043
:10054000214908600846006820F00300086008465A
:10055000006840F0020008601A4840681949486085
:100560000846406848600846406840F4806048603B
:100570000846406820F47C1048600846406840F413
:10058000E81048600846006840F08070086000BFCE
:100590000C48006800F000700028F9D00948406855
:1005A00020F00300074948600846406840F0020018
:1005B000486000BF0348406800F00C000828F9D1EB
:1005C0000CBD0000001002400020024070470000F7
:1005D00010B51348006840F0010011490860084652
:1005E0004068104908400E494860084600680E49B6
:1005F00008400B4908600846006820F48020086025
:100600000846406820F4FE0048604FF41F008860F0
:10061000FFF767FF4FF000600449086010BD00005D
:10062000001002400000FFF8FFFFF6FE08ED00E0BA
:1006300000BFFEE710B5FFF719FEFFF76DFE0022C1
:100640000A210846FFF740FE00220C210A20FFF78E
:100650003BFE00220E210A20FFF736FE002010BDCF
:100660007006000800000020600600006C01000811
:04000005080001B13D
:00000001FF
