:020000040800F2
:1000000060060020B10100089D0400086902000894
:100010009904000863020008590600080000000067
:10002000000000000000000000000000A104000823
:1000300067020008000000009F0400088D0500080A
:10004000CB010008CB010008CB010008CB01000860
:10005000CB010008CB010008CB010008CB01000850
:10006000CB010008CB010008CB010008CB01000840
:10007000CB010008CB010008CB010008CB01000830
:10008000CB010008CB010008CB010008CB01000820
:10009000CB010008CB010008CB010008CB01000810
:1000A000CB010008CB010008CB010008CB01000800
:1000B000CB010008CB010008CB010008CB010008F0
:1000C000CB010008CB010008CB010008CB010008E0
:1000D000CB010008CB010008CB010008CB010008D0
:1000E000CB010008CB010008CB010008CB010008C0
:1000F000CB010008CB010008CB010008CB010008B0
:10010000CB010008CB010008CB010008CB0100089F
:10011000CB010008CB010008CB010008CB0100088F
:10012000CB010008CB010008CB010008CB0100087F
:1001300000F002F800F02CF80AA090E8000C8244CD
:100140008344AAF10107DA4501D100F021F8AFF2AA
:10015000090EBAE80F0013F0010F18BFFB1A43F0A5
:1001600001031847700A0000800A000000230024E1
:1001700000250026103A28BF78C1FBD8520728BFB7
:1001800030C148BF0B6070471FB51FBD10B510BD13
:1001900000F031F81146FFF7F7FF00F05FFA00F0CA
:1001A0004FF803B4FFF7F2FF03BC00F053F8000070
:1001B0000948804709480047FEE7FEE7FEE7FEE7FB
:1001C000FEE7FEE7FEE7FEE7FEE7FEE70448054937
:1001D000054A064B704700009105000831010008F0
:1001E0006000002060060020600200206002002005
:1001F000704770477047754600F028F8AE46050016
:100200006946534620F00700854618B020B5FFF731
:10021000DDFFBDE820404FF000064FF000074FF033
:1002200000084FF0000B21F00701AC46ACE8C00914
:10023000ACE8C009ACE8C009ACE8C0098D4670471D
:100240000446AFF300802046FFF7ABFF004870473D
:100250000000002001491820ABBEFEE72600020086
:10026000704700BFFEE7704700BFFEE72DE9F05F73
:1002700005460E46300100F04DFB8146284905FB3E
:1002800001F000F047FB8246494600F061FA07465C
:10029000384600F01FFB84B2204600F03BFB83464B
:1002A000394600F017FC82464FF0834100F046FBD0
:1002B000814600F00FFB80464FF6FF7000EA041401
:1002C00004EB080084B21748806940F00400154927
:1002D00088610846806940F480408861124800685F
:1002E00020F47F60104908600846006840F40B6005
:1002F00008600C48C06840F480400A49C86008465D
:10030000C06820F48040C86008480480001D008850
:1003100042F2080108430549091D0880BDE8F09F25
:1003200040420F000010024004080140083801401C
:100330002DE9F05F05460E46300100F0EBFA8146EC
:10034000284905FB01F000F0E5FA8246494600F035
:10035000FFF90746384600F0BDFA84B2204600F0A7
:10036000D9FA8346394600F0B5FB82464FF0834107
:1003700000F0E4FA814600F0ADFA80464FF6FF70D7
:1003800000EA041404EB080084B21748806940F0C6
:100390000400154988610846C06940F40030C8610E
:1003A0001248006820F47F40104908600846006841
:1003B00040F40B4008600C48006940F400300A49E2
:1003C00008610846006920F400300861084804808C
:1003D000001D008842F2080108430549091D0880F4
:1003E000BDE8F09F40420F000010024000080140AD
:1003F0000844004007210020234A5268234B1A403A
:10040000214B5A601A461268214B1A401E4B1A6043
:100410001A46126842F480321A6000BF1A4A126803
:10042000520C002AFAD04FF48062174B5A601A46D9
:10043000526842EA81425A601A46526842F4803257
:100440005A60144A126842F03202124B1A600E4A85
:10045000126842F080720C4B1A6000BF0A4A1268A0
:10046000520E002AFAD0084A526842F00202064BA5
:100470005A6005E0044A5268C2F3870000F00300A6
:100480000228F7D170470000001002400000FFF87A
:10049000FFFFF6FE0020024000BFFEE770477047F6
:1004A000704710B500F002F810BD00000CB5002038
:1004B000019000903348006840F480303149086072
:1004C00000BF3048006800F4003000900198401CE4
:1004D0000190009818B90198B0F5A06FF1D12948A2
:1004E000006800F4003010B10120009001E000200D
:1004F00000900098012843D12348006840F0100084
:10050000214908600846006820F00300086008469A
:10051000006840F0020008601A48406819494860C5
:100520000846406848600846406840F4806048607B
:100530000846406820F47C1048600846406840F453
:10054000E81048600846006840F08070086000BF0E
:100550000C48006800F000700028F9D00948406895
:1005600020F00300074948600846406840F0020058
:10057000486000BF0348406800F00C000828F9D12B
:100580000CBD000000100240002002407047000037
:1005900010B51348006840F0010011490860084692
:1005A0004068104908400E494860084600680E49F6
:1005B00008400B4908600846006820F48020086065
:1005C0000846406820F4FE0048604FF41F00886031
:1005D000FFF767FF4FF000600449086010BD00009E
:1005E000001002400000FFF8FFFFF6FE08ED00E0FB
:1005F00010B50246002025E0012A02D10B5C144C04
:100600002380022A02D10B5C124C238000BF104BC6
:100610001B1F1B8803F08003002BF8D000BF0D4B7D
:100620001B1F1B8803F08003002BF8D000BF084B72
:100630001B1F1B88DB01002BF9D0FF2800D104E031
:10064000431CD8B20B5C002BD6D100BF10BD0000FC
:10065000043801400444004000BFFEE7FFF7CAFE33
:100660004FF416512420FFF763FE4FF41651482033
:10067000FFF7FCFD03E002A10120FFF7B9FFFAE755
:1006800031313535313234393833000090EA010FD9
:1006900048BF81F0004100F12E82421A3CBF801A0F
:1006A00089184FEAD0524FF07F4C1CEA410FA2EB61
:1006B000D15318BF9CEA026F00F03B804FF0004C12
:1006C0004CEA00204CEA012121FA03FC10EB0C0C4F
:1006D0001ED202F1FF325FEA1C2040EBC25038BF4D
:1006E00070471CF07F0F4FEA400C18BFBCF17F4FE2
:1006F00038BF7047C3F12003994008BF20F00100C4
:10070000BCF17F4F38BF7047A0F1C04000F0DDB9A9
:100710004FEA3C00000A40EBC25028BF1CF0FF0F1C
:100720004FEA400CE6D018BFBCF17F4F38BF70478E
:10073000EAE79CEA026F05D010EA5C0F08BF00F000
:100740000040704710B500F07AF900BF64FBBE3E70
:100750004FF47F0C1CEAD0121EBF1CEAD11392EAA0
:100760000C0F93EA0C0F00F0858090EA010F48BF50
:1007700042F4807240F4000C41F400002CF07F4100
:1007800020F07F4000B58142A2EB03020FF2081C6B
:10079000ACEB504EC0F100009EF800E04FEA4E0E68
:1007A00000FB0EFC38BF49004FEA2C1C02F5FA0290
:1007B0000CFB0EF34FEACE1E4FEA112C4FEAC1217B
:1007C0000EEB635E42EB22420EFB0CFC4FEA1C5325
:1007D00000FB03114FEA112C4FEA01310EFB0CFC18
:1007E0004FEADC4C00FB0C11C14228BF09184CEB4E
:1007F00003335DF804EB10EB410143EBC250B2F55B
:100800007C0F38BF704729D512F0F00F1CBF00F1E4
:10081000C04000F000407047008182838485868755
:1008200088898B8C8D8E8F919293959697999A9CAF
:100830009D9FA0A2A3A5A7A8AAACAEB0B2B3B5B71E
:10084000B9BCBEC0C2C5C7C9CCCED1D4D7D9DCDFF4
:10085000E2E6E9ECF0F3F7FAFE0000004FEA400CA4
:100860000CF1807CBCF17E4F28BF7047B0F1C040D6
:1008700000F02BB990EA010F0CEAD11348BF42F403
:100880008072624538BF634507D213F47F0F16D0DC
:1008900080EA010000F00040704710B500F0CFF88A
:1008A000097EFC3E00F005B880EA010000F000403F
:1008B000704780EA010000F0004000F006B912F431
:1008C0007F0F04BF0248704780EA010000F0FDB8C6
:1008D0000000C07FC10DD1F19E0206DB4FEA00236C
:1008E00043F0004323FA02F07047004207D54FEA75
:1008F0004001B1F1FE4F02D24FF00000704710B539
:1009000000F09DF849922480002070476FEA200093
:1009100070470000B0FA80F310FA03F2C3F19D03B0
:100920000AD0D90501EB1220530638BF704700F1F9
:10093000010008BF20F00100704700004FF47F0C59
:100940001CEAD0121EBF1CEAD11392EA0C0F93EAE4
:100950000C0F00F0478090EA010F48BF42F480720C
:100960004FF0004C4CEA00204CEA012102EB03025C
:10097000A0FB0113A2F50002002918BF43F00103F8
:100980005B0028BF4FEA330342EB22425FEA132C9D
:100990004CEBC2502EBFBCEB436FB2F57C0F7047DF
:1009A0004FEA036CBCF1004F08BF20F00100B2F524
:1009B0007C0F38BF70470BD582F0FF0212F5803FE5
:1009C000C8BF704700F1C040D8BF00F0004070477A
:1009D00000F5000C5FEA4C0C48BF7047B0F1C04016
:1009E00000F073B890EA010F0CEAD11348BF42F44B
:1009F0008072624538BF634504D280EA010000F08E
:100A00000040704710B500F01AF800BF8900013EA1
:100A100000F007B800F009B85FEA410C5FEA1C6C0F
:100A200008D080EA010000F050B85FEA400C5FEAAD
:100A30001C6CF6D14FF00040A0F5800070470EF11D
:100A4000020E2EF0030E5EF8044B244204D44FEA4B
:100A50004102B2F17F4F11D84FEA4003B3F17F4F0B
:100A60000CD80ED14FEAD07CB2F17F4F0CEB4C0C7E
:100A70000CF1020C08BF4CEBD17C04E04FF0080CE9
:100A800001E04FEAD17C0CEB4C0324FA03F404F0B0
:100A90000704B4F1040C06D20EEB840CBDE8104040
:100AA0004CF0010C6047DFE80CF0070802024FF041
:100AB0000040A0F5800010BD0846420018BFD2F1EA
:100AC000807288BF00F0004010BDFF2141EAD05085
:100AD000C005704780F0004090EA010F7FF5DDAD62
:100AE00081F0004100F007B890EA010F48BF81F0A3
:100AF00000413FF5D2AD421A04D882F00042A0EB8B
:100B0000020011444FEAD0524FF07F4C1CEA410FD3
:100B1000A2EBD15318BF9CEA026F4AD04FF0004CB1
:100B20004CEA00204CEA012121FA03FCB0EB0C0C4A
:100B30000FD412F0FE0F36D05FEA4C001DD5001224
:100B400040EBC25038BF70471CF03F0F18BF7047D2
:100B50000BE0A2F101025FEA1C2040EBC25038BF5B
:100B600070471CF07F0F18BF7047C3F120039940F6
:100B700014BF401E20F00100704780084FEA122386
:100B800008BF7047B0FA80FCA2EB0C02CCF1280C35
:100B900060FA0CF093EA122F04BF00EBC2507047CA
:100BA0004FEAC3707047130A5FEADC1008BF704752
:100BB000F6E79CEA026F04D010EA5C0F08BF002041
:100BC000704710B5FFF73BFF40DFF63E81F0004075
:100BD00070470000E40B00080000002060060000E1
:040BE0006C0100089C
:04000005080001B13D
:00000001FF
