:020000040800F2
:1000000078060020CD0100087D0500089503000852
:10001000790500087F0200081507000800000000AD
:100020000000000000000000000000008105000842
:1000300099020008000000007F0500086D06000816
:10004000E7010008E7010008E7010008E7010008F0
:10005000E7010008E7010008A9020008E70100081D
:1000600059030008E7010008E7010008E70100085C
:10007000E7010008E7010008E7010008E7010008C0
:10008000E7010008E7010008E7010008E7010008B0
:10009000E7010008E7010008E7010008E7010008A0
:1000A000E7010008E7010008E7010008E701000890
:1000B000E7010008D1060008E9060008E70100088A
:1000C000E7010008E7010008E7010008E701000870
:1000D000E7010008E7010008E7010008E701000860
:1000E000E5020008E7010008E7010008E701000851
:1000F000E7010008E7010008E7010008E701000840
:10010000E7010008E7010008E7010008E70100082F
:10011000E7010008E7010008E7010008E70100081F
:10012000E7010008E7010008E7010008E70100080F
:1001300000F002F800F03AF80AA090E8000C8244BF
:100140008344AAF10107DA4501D100F02FF8AFF29C
:10015000090EBAE80F0013F0010F18BFFB1A43F0A5
:1001600001031847E005000000060000103A24BF14
:1001700078C878C1FAD8520724BF30C830C144BF0C
:1001800004680C607047000000230024002500264E
:10019000103A28BF78C1FBD8520728BF30C148BFEA
:1001A0000B6070471FB51FBD10B510BD00F031F8D2
:1001B0001146FFF7F7FF00F0AFFA00F04FF803B475
:1001C000FFF7F2FF03BC00F053F800000948804736
:1001D00009480047FEE7FEE7FEE7FEE7FEE7FEE729
:1001E000FEE7FEE7FEE7FEE704480549054A064B41
:1001F00070470000710600083101000878000020F7
:1002000078060020780200207802002070477047AE
:100210007047754600F028F8AE460500694653461B
:1002200020F00700854618B020B5FFF7DDFFBDE8D8
:1002300020404FF000064FF000074FF000084FF04D
:10024000000B21F00701AC46ACE8C009ACE8C009DE
:10025000ACE8C009ACE8C0098D4670470446AFF36E
:1002600000802046FFF7ABFF0048704718000020D1
:1002700001491820ABBEFEE726000200704700BF10
:10028000FEE700002020014908607047100C014083
:1002900000B5FFF7F7FF00BD7047002100E0491CE3
:1002A0008142FCD37047000000B500230EE02020FF
:1002B000094908600948FFF7F0FF20200649091F97
:1002C00008600648FFF7E9FF581CC3B20A2BEEDBB3
:1002D00001200349086000BD1418014040420F008E
:1002E0001404014000B517480068F0B115480068D3
:1002F00009281AD2144800684008134908601349B5
:1003000008601348806800F4806020B108460068E7
:1003100040F0800008600D4800680B4908600948FB
:100320000068401C0749086004E006480068401C5B
:10033000044908600A20FFF7B0FF4FF40060054948
:10034000086000BD10000020080000200C00002004
:10035000001001401404014000B500230EE02020ED
:10036000094908600948FFF798FF20200649091F3E
:1003700008600648FFF791FF581CC3B20A2BEEDB5A
:1003800004200349086000BD140C014040420F00E6
:100390001404014000BFFEE71348806940F00800E4
:1003A000114988611148006820F470000F49086005
:1003B0000846006840F4401008600B48806940F02F
:1003C0004000094988610A48006820F47000084923
:1003D00008600846006840F4401008602020044986
:1003E000103108607047000000100240000C01400E
:1003F00000180140014601F007021202054B18687F
:100400004FF6FF031840044B18431043014B18608C
:10041000704700000CED00E00000FA05124AD269B6
:1004200042F00202104BDA61104A1080121F118054
:100430000E4A203A128842F001020C4B203B1A80EF
:100440000A4A2C3A128842F00102084B2C3B1A80CF
:100450004523074A1370074A126842F000524FF0D2
:10046000E023C3F800217047001002402C04004034
:100470001DE400E000E100E0124AD26942F004020B
:10048000104BDA61104A1080121F11800E4A203A78
:10049000128842F001020C4B203B1A800A4A2C3A87
:1004A000128842F00102084B2C3B1A804523074A70
:1004B0001370074A126842F080424FF0E023C3F8FD
:1004C00000217047001002402C0800401EE400E0AC
:1004D00000E100E007210020234A5268234B1A4024
:1004E000214B5A601A461268214B1A401E4B1A6063
:1004F0001A46126842F480321A6000BF1A4A126823
:10050000520C002AFAD04FF48062174B5A601A46F8
:10051000526842EA81425A601A46526842F4803276
:100520005A60144A126842F03202124B1A600E4AA4
:10053000126842F080720C4B1A6000BF0A4A1268BF
:10054000520E002AFAD0084A526842F00202064BC4
:100550005A6005E0044A5268C2F3870000F00300C5
:100560000228F7D170470000001002400000FFF899
:10057000FFFFF6FE0020024000BFFEE77047704715
:10058000704710B500F002F810BD00000CB5002057
:10059000019000903348006840F480303149086091
:1005A00000BF3048006800F4003000900198401C03
:1005B0000190009818B90198B0F5A06FF1D12948C1
:1005C000006800F4003010B10120009001E000202C
:1005D00000900098012843D12348006840F01000A3
:1005E000214908600846006820F0030008600846BA
:1005F000006840F0020008601A48406819494860E5
:100600000846406848600846406840F4806048609A
:100610000846406820F47C1048600846406840F472
:10062000E81048600846006840F08070086000BF2D
:100630000C48006800F000700028F9D009484068B4
:1006400020F00300074948600846406840F0020077
:10065000486000BF0348406800F00C000828F9D14A
:100660000CBD000000100240002002407047000056
:1006700010B51348006840F00100114908600846B1
:100680004068104908400E494860084600680E4915
:1006900008400B4908600846006820F48020086084
:1006A0000846406820F4FE0048604FF41F00886050
:1006B000FFF767FF4FF000600449086010BD0000BD
:1006C000001002400000FFF8FFFFF6FE08ED00E01A
:1006D00000B5202003490860FFF7D4FDFFF7D8FDDF
:1006E00000BD0000100C01400848008800F0010027
:1006F00028B10748006880F02000054908600348D9
:10070000008820F00100014908807047100800406F
:100710000C18014000BFFEE7FFF73EFEFFF7DAFED0
:100720000520FFF767FE41F61F4141F28730FFF7D2
:1007300075FE41F61F4140F2E140FFF79DFE00BF0C
:10074000FEE7000064070008000000201800000019
:100750006C0100087C0700081800002060060000FB
:1007600088010008000000001027000000000000C1
:0C0770000000000000000000000000007D
:04000005080001CD21
:00000001FF
