:020000040800F2
:1000000068060020CD010008A5040008CD02000804
:10001000A10400087F020008F905000800000000A4
:10002000000000000000000000000000A90400081B
:100030008302000800000000A704000895050008DE
:10004000E7010008E7010008E7010008E7010008F0
:10005000E7010008E7010008E7010008E7010008E0
:1000600091020008E7010008E7010008E701000825
:10007000E7010008E7010008E7010008E7010008C0
:10008000E7010008E7010008E7010008E7010008B0
:10009000E7010008E7010008E7010008E7010008A0
:1000A000E7010008E7010008E7010008E701000890
:1000B000E7010008E7010008E7010008E701000880
:1000C000E7010008E7010008E7010008E701000870
:1000D000E7010008E7010008E7010008E701000860
:1000E000E7010008E7010008E7010008E701000850
:1000F000E7010008E7010008E7010008E701000840
:10010000E7010008E7010008E7010008E70100082F
:10011000E7010008E7010008E7010008E70100081F
:10012000E7010008E7010008E7010008E70100080F
:1001300000F002F800F03AF80AA090E8000C8244BF
:100140008344AAF10107DA4501D100F02FF8AFF29C
:10015000090EBAE80F0013F0010F18BFFB1A43F0A5
:1001600001031847F804000018050000103A24BFE6
:1001700078C878C1FAD8520724BF30C830C144BF0C
:1001800004680C607047000000230024002500264E
:10019000103A28BF78C1FBD8520728BF30C148BFEA
:1001A0000B6070471FB51FBD10B510BD00F031F8D2
:1001B0001146FFF7F7FF00F021FA00F04FF803B403
:1001C000FFF7F2FF03BC00F053F800000948804736
:1001D00009480047FEE7FEE7FEE7FEE7FEE7FEE729
:1001E000FEE7FEE7FEE7FEE704480549054A064B41
:1001F00070470000990500083101000868000020E0
:1002000068060020680200206802002070477047DE
:100210007047754600F028F8AE460500694653461B
:1002200020F00700854618B020B5FFF7DDFFBDE8D8
:1002300020404FF000064FF000074FF000084FF04D
:10024000000B21F00701AC46ACE8C009ACE8C009DE
:10025000ACE8C009ACE8C0098D4670470446AFF36E
:1002600000802046FFF7ABFF0048704704000020E5
:1002700001491820ABBEFEE726000200704700BF10
:10028000FEE77047002100E0491C8142FCD3704723
:1002900000B500230EE02020094908600948FFF757
:1002A000F1FF20200649091F08600648FFF7EAFF12
:1002B000581CC3B20A2BEEDB04200349086000BDC2
:1002C000140C014040420F001404014000BFFEE73F
:1002D0001348806940F0080011498861114800689E
:1002E00020F470000F4908600846006840F4401090
:1002F00008600B48806940F04000094988610A485D
:10030000006820F47000084908600846006840F45E
:100310004010086020200449103108607047000038
:1003200000100240000C014000180140014601F09D
:1003300007021202054B18684FF6FF031840044BE2
:1003400018431043014B1860704700000CED00E0AB
:100350000000FA0507210020234A5268234B1A4067
:10036000214B5A601A461268214B1A401E4B1A60E4
:100370001A46126842F480321A6000BF1A4A1268A4
:10038000520C002AFAD04FF48062174B5A601A467A
:10039000526842EA81425A601A46526842F48032F8
:1003A0005A60144A126842F03202124B1A600E4A26
:1003B000126842F080720C4B1A6000BF0A4A126841
:1003C000520E002AFAD0084A526842F00202064B46
:1003D0005A6005E0044A5268C2F3870000F0030047
:1003E0000228F7D170470000001002400000FFF81B
:1003F000FFFFF6FE002002402348806940F04000E5
:10040000214988612148006820F470601F49086014
:100410000846006840F40060086004201B49103161
:1004200008601948806940F0010017498861184840
:10043000806820F47060164988600846806840F43F
:10044000806088601348006840F00400114908602B
:1004500010480C30006840F004000E490C31086070
:1004600065210D4801700D48006820F480704FF040
:10047000E021C1F800010846D0F8000140F4807086
:10048000C1F8000170470000001002400018014050
:10049000000001400004014008E400E000E100E049
:1004A00000BFFEE770477047704710B500F002F8D4
:1004B00010BD00000CB5002001900090334800688A
:1004C00040F480303149086000BF3048006800F4D3
:1004D000003000900198401C0190009818B90198D4
:1004E000B0F5A06FF1D12948006800F4003010B1D8
:1004F0000120009001E0002000900098012843D1E5
:100500002348006840F01000214908600846006850
:1005100020F0030008600846006840F00200086010
:100520001A484068194948600846406848600846CB
:10053000406840F4806048600846406820F47C10C1
:1005400048600846406840F4E81048600846006883
:1005500040F08070086000BF0C48006800F0007038
:100560000028F9D00948406820F003000749486096
:100570000846406840F00200486000BF03484068F9
:1005800000F00C000828F9D10CBD0000001002405A
:10059000002002407047000010B51348006840F08A
:1005A00001001149086008464068104908400E499A
:1005B0004860084600680E4908400B490860084634
:1005C000006820F4802008600846406820F4FE009F
:1005D00048604FF41F008860FFF767FF4FF000602E
:1005E0000449086010BD0000001002400000FFF840
:1005F000FFFFF6FE08ED00E000BFFEE7FFF7AAFEF2
:10060000FFF766FE0520FFF791FEFFF7F5FE2020BD
:100610000E49086018E00E48FFF734FE0D480068E8
:1006200040F020000B4908600948FFF72BFE0948FD
:10063000001F006840F020000649091F08600648B6
:100640000068401C04490860E5E70000100C014008
:10065000404B4C0014180140000000207C060008AC
:1006600000000020040000006C0100088006000863
:10067000040000206406000088010008000000005B
:04000005080001CD21
:00000001FF
