:020000040800F2
:1000000060060020B1010008C10500087502000863
:10001000BD05000863020008150700080000000085
:10002000000000000000000000000000C5050008FE
:100030006702000800000000C3050008B1060008C0
:10004000CB010008CB010008CB010008CB01000860
:10005000CB010008CB010008CB010008CB01000850
:10006000CB010008CB010008CB010008CB01000840
:10007000CB010008CB010008CB010008CB01000830
:10008000CB010008CB010008CB010008CB01000820
:10009000CB010008CB010008CB010008CB01000810
:1000A000CB010008CB010008CB010008CB01000800
:1000B000CB010008CB010008CB010008CB010008F0
:1000C000CB010008CB010008CB010008CB010008E0
:1000D000CB010008CB010008CB010008CB010008D0
:1000E000CB010008CB010008CB010008CB010008C0
:1000F000CB010008CB010008CB010008CB010008B0
:10010000CB010008CB010008CB010008CB0100089F
:10011000CB010008CB010008CB010008CB0100088F
:10012000CB010008CB010008CB010008CB0100087F
:1001300000F002F800F02CF80AA090E8000C8244CD
:100140008344AAF10107DA4501D100F021F8AFF2AA
:10015000090EBAE80F0013F0010F18BFFB1A43F0A5
:1001600001031847380C0000480C0000002300244D
:1001700000250026103A28BF78C1FBD8520728BFB7
:1001800030C148BF0B6070471FB51FBD10B510BD13
:1001900000F031F81146FFF7F7FF00F0BDFA00F06C
:1001A0004FF803B4FFF7F2FF03BC00F053F8000070
:1001B0000948804709480047FEE7FEE7FEE7FEE7FB
:1001C000FEE7FEE7FEE7FEE7FEE7FEE70448054937
:1001D000054A064B70470000B506000831010008CB
:1001E0006000002060060020600200206002002005
:1001F000704770477047754600F028F8AE46050016
:100200006946534620F00700854618B020B5FFF731
:10021000DDFFBDE820404FF000064FF000074FF033
:1002200000084FF0000B21F00701AC46ACE8C00914
:10023000ACE8C009ACE8C009ACE8C0098D4670471D
:100240000446AFF300802046FFF7ABFF004870473D
:100250000000002001491820ABBEFEE72600020086
:10026000704700BFFEE77047002100E0491C814253
:10027000FCD3704700BFFEE71348806940F00800D8
:10028000114988611148006820F470000F49086026
:100290000846006840F4401008600B48806940F050
:1002A0004000094988610A48006820F47000084944
:1002B00008600846006840F44010086020200449A7
:1002C000103108607047000000100240000C01402F
:1002D000001801402DE9F8470546884616461F4696
:1002E0004FF0000A00244FF008090BE000972A5D48
:1002F00009FB04F1503188B23346414600F0DCF886
:10030000601CC4B2285D0028F0D1BDE8F887000069
:1003100000B55548406940F480705349486108462B
:10032000806940F0080088610846806940F020003C
:1003300088610846806940F040008861084680690D
:1003400040F4807088614948006820F00F004749F8
:1003500008600846006840F00300086044480068F0
:100360004449084042490860084600684249084339
:100370003F490860081F006800F0FF20091F08605F
:100380000846006840F0BB1008603C480068002048
:100390003A4908600846006840F0BB300860081F12
:1003A000006820F07040091F08600846006840F0AF
:1003B000304008603248406820F47020304948607E
:1003C0000846406840F4302048600846006820F045
:1003D0000F0008600846006840F00B00086000202D
:1003E0004FF020418861C861264908604FF02040E5
:1003F000806940F480504FF0204188610846806950
:1004000040F4804088610846806940F010008861AF
:100410000846C069C8610846C06940F00100C8616B
:100420000846C06940F47060C86116480068C1F8A9
:100430001C0114480068C1F81C010846D0F81C01D2
:1004400040F44070C1F81C010846806940F001008A
:10045000886100F019F805480C30006840F0010090
:1004600002490C31086000BD00100240000C014040
:100470000414014000F0FF00BB0B00BB0418014056
:10048000002001401C0100A000B5012000F090F800
:10049000112000F08DF83A2000F08AF8552000F085
:1004A00081F8292000F084F8362000F081F8CA2075
:1004B00000F078F800BD00002DE9F04F04460D462D
:1004C00016469A46DDF8249010224FF0080B202E95
:1004D00001DB7F2E01DDBDE8F08FA6F12000C6B262
:1004E0002A2000F065F8201200F05CF8E0B200F07D
:1004F00059F804EB0B01491EC1F30F2000F052F82C
:1005000004EB0B01491EC8B200F04CF82B2000F0A0
:100510004FF8281200F046F8E8B200F043F8A918A6
:10052000491EC1F30F2000F03DF8A918491EC8B2BA
:1005300000F038F82C2000F03BF8002327E04FF0C3
:1005400000081DE0002715E0154800EB061001210A
:1005500001EB4701C91A405C40FA08F000F00100C5
:1005600018B1504600F01EF802E0484600F01AF8B4
:10057000781CC7B25F45E7DB08F1010000F0FF0817
:1005800002EBD271B8EB610FDCDB581CC3B2D117A0
:1005900002EB5171B3EBE10FD1DB00BF9BE7000031
:1005A0006407000801490880704700000008006CDB
:1005B0000149088070470000FE07006C00BFFEE79D
:1005C00070477047704710B500F002F810BD00008A
:1005D0000CB50020019000903348006840F4803052
:1005E0003149086000BF3048006800F400300090D6
:1005F0000198401C0190009818B90198B0F5A06FBF
:10060000F1D12948006800F4003010B101200090B9
:1006100001E0002000900098012843D123480068A1
:1006200040F01000214908600846006820F00300EF
:1006300008600846006840F0020008601A484068F8
:10064000194948600846406848600846406840F4D8
:10065000806048600846406820F47C104860084686
:10066000406840F4E81048600846006840F0807038
:10067000086000BF0C48006800F000700028F9D046
:100680000948406820F00300074948600846406870
:1006900040F00200486000BF0348406800F00C00D2
:1006A0000828F9D10CBD00000010024000200240D3
:1006B0007047000010B51348006840F00100114970
:1006C000086008464068104908400E4948600846DE
:1006D00000680E4908400B4908600846006820F48D
:1006E000802008600846406820F4FE0048604FF40F
:1006F0001F008860FFF767FF4FF000600449086043
:1007000010BD0000001002400000FFF8FFFFF6FEE1
:1007100008ED00E000BFFEE710B5FFF7ADFDFFF705
:10072000F7FD0948FFF7A0FD00234EF6A202B42111
:1007300006A0FFF7CFFD00234EF6A202822106A0FD
:10074000FFF7C8FD002010BD80841E003131353513
:1007500031323439383300003131353531343436C3
:10076000363800000000000000000000000000001B
:10077000000000000000000000001FCC000C000082
:100780000000000000000800300060000800300099
:1007900060000000022003FC1E20022003FC1E203B
:1007A0000220000000000E1811043FFF10840C7896
:1007B000000000000F0010840F3800C00778188474
:1007C0000078000000780F8410C411240E9800E413
:1007D00000840008080068007000000000000000AD
:1007E0000000000000000000000007E018182004CE
:1007F00040020000000040022004181807E000003A
:10080000000000000240024001800FF00180024021
:10081000024000000080008000800FF8008000800F
:10082000008000000001000D000E0000000000002C
:100830000000000000000080008000800080008038
:10084000008000800000000C000C00000000000090
:100850000000000000000006001800600180060093
:1008600018002000000007F0080810041004080811
:1008700007F000000000080408041FFC0004000446
:100880000000000000000E0C10141024104411840D
:100890000E0C000000000C18100411041104128842
:1008A0000C700000000000E00320042408241FFC5A
:1008B0000024000000001F98108411041104108807
:1008C00010700000000007F0088811041104188857
:1008D0000070000000001C00100010FC13001C0041
:1008E0001000000000000E381144108410841144E0
:1008F0000E38000000000700088C104410440888DF
:1009000007F00000000000000000030C030C0000D2
:1009100000000000000000000001010600000000CF
:1009200000000000000000800140022004100808C0
:1009300010040000022002200220022002200220D7
:1009400002200000000010040808041002200140EA
:100950000080000000000E001200100C106C1080CF
:100960000F00000003E00C1813E4142417C4082837
:1009700007D000000004003C03C41C40074000E412
:10098000001C000410041FFC1104110411040E8843
:100990000070000003E00C1810041004100410088C
:1009A0001C10000010041FFC1004100410040808A0
:1009B00007F0000010041FFC1104110417C41004F8
:1009C0000818000010041FFC1104110017C01000CB
:1009D0000800000003E00C181004100410441C78F8
:1009E0000040000010041FFC108400800080108470
:1009F0001FFC10040000100410041FFC100410045D
:100A00000000000000030001100110011FFE100093
:100A10001000000010041FFC110403801464181C53
:100A20001004000010041FFC100400040004000463
:100A3000000C000010041FFC1F0000FC1F001FFC26
:100A40001004000010041FFC0C04030000E0101848
:100A50001FFC100007F00808100410041004080818
:100A600007F0000010041FFC10841080108010801C
:100A70000F00000007F0081810241024101C080AAA
:100A800007F2000010041FFC1104110011C0113006
:100A90000E0C000400000E1C11041084108410447D
:100AA0001C3800001800100010041FFC1004100077
:100AB0001800000010001FF81004000400041004C7
:100AC0001FF8100010001E0011E0001C00701380C1
:100AD0001C0010001FC0103C00E01F0000E0103C94
:100AE0001FC000001004180C163401C001C01634D9
:100AF000180C100410001C00130400FC13041C004C
:100B0000100000000804101C1064108413041C045E
:100B1000101800000000000000007FFE40024002AC
:100B200040020000000030000C0003800060001C48
:100B30000003000000004002400240027FFE00006F
:100B400000000000000000002000400040004000C5
:100B5000200000000001000100010001000100016F
:100B600000010001000040004000200000000000E3
:100B700000000000000000980124014401440144E9
:100B800000FC000410001FFC008801040104008820
:100B900000700000000000700088010401040104DE
:100BA00000880000000000700088010401041108A2
:100BB0001FFC0004000000F801440144014401440A
:100BC00000C800000000010401040FFC110411041E
:100BD00011001800000000D601290129012901C9CE
:100BE0000106000010041FFC008401000100010444
:100BF00000FC000400000104190419FC00040004B6
:100C0000000000000000000300010101190119FEAD
:100C10000000000010041FFC0024004001B4010C7F
:100C2000010400000000100410041FFC0004000474
:100C300000000000010401FC0104010001FC0104AA
:100C4000010000FC010401FC00840100010001041A
:100C500000FC0004000000F8010401040104010488
:100C600000F80000010101FF008501040104008873
:100C700000700000000000700088010401040105FC
:100C800001FF00010104010401FC008401040100D2
:100C900001800000000000CC012401240124012473
:100CA0000198000000000100010007F801040104A0
:100CB00000000000010001F8000400040004010825
:100CC00001FC0004010001800170000C00100160B3
:100CD0000180010001F0010C003001C00030010C66
:100CE00001F0010000000104018C00740170018C0E
:100CF00001040000010101810171000E0018016072
:100D00000180010000000184010C013401440184D0
:100D1000010C0000000000000000000001003EFC8B
:100D2000400240020000000000000000FFFF000041
:100D3000000000000000400240023EFC01000000F4
:100D400000000000000060008000800040004000C3
:100D5000200020000101010101010000010100004B
:100D60000000010100010100010101010100000179
:100D70000001010000010101000101000101010069
:100D80000101010101010101000000000101010157
:100D9000010101010101010001010000AC0D000889
:0C0DA00000000020600600006C0100084C
:04000005080001B13D
:00000001FF
