:020000040800F2
:1000000068060020CD0100088D05000809030008DE
:10001000890500087F020008E106000800000000D2
:100020000000000000000000000000009105000832
:1000300083020008000000008F0500087D0600080C
:10004000E7010008E7010008E7010008E7010008F0
:10005000E7010008E701000891020008E701000835
:10006000CD020008E7010008E7010008E7010008E9
:10007000E7010008E7010008E7010008E7010008C0
:10008000E7010008E7010008E7010008E7010008B0
:10009000E7010008E7010008E7010008E7010008A0
:1000A000E7010008E7010008E7010008E701000890
:1000B000E7010008E7010008E7010008E701000880
:1000C000E7010008E7010008E7010008E701000870
:1000D000E7010008E7010008E7010008E701000860
:1000E000E7010008E7010008E7010008E701000850
:1000F000E7010008E7010008E7010008E701000840
:10010000E7010008E7010008E7010008E70100082F
:10011000E7010008E7010008E7010008E70100081F
:10012000E7010008E7010008E7010008E70100080F
:1001300000F002F800F03AF80AA090E8000C8244BF
:100140008344AAF10107DA4501D100F02FF8AFF29C
:10015000090EBAE80F0013F0010F18BFFB1A43F0A5
:1001600001031847B4050000D4050000103A24BF6D
:1001700078C878C1FAD8520724BF30C830C144BF0C
:1001800004680C607047000000230024002500264E
:10019000103A28BF78C1FBD8520728BF30C148BFEA
:1001A0000B6070471FB51FBD10B510BD00F031F8D2
:1001B0001146FFF7F7FF00F095FA00F04FF803B48F
:1001C000FFF7F2FF03BC00F053F800000948804736
:1001D00009480047FEE7FEE7FEE7FEE7FEE7FEE729
:1001E000FEE7FEE7FEE7FEE704480549054A064B41
:1001F00070470000810600083101000868000020F7
:1002000068060020680200206802002070477047DE
:100210007047754600F028F8AE460500694653461B
:1002200020F00700854618B020B5FFF7DDFFBDE8D8
:1002300020404FF000064FF000074FF000084FF04D
:10024000000B21F00701AC46ACE8C009ACE8C009DE
:10025000ACE8C009ACE8C0098D4670470446AFF36E
:1002600000802046FFF7ABFF0048704704000020E5
:1002700001491820ABBEFEE726000200704700BF10
:10028000FEE77047002100E0491C8142FCD3704723
:1002900000B500230EE02020094908600948FFF757
:1002A000F1FF20200649091F08600648FFF7EAFF12
:1002B000581CC3B20A2BEEDB01200349086000BDC5
:1002C0001418014040420F001404014000B50023FF
:1002D0000EE02020094908600948FFF7D3FF2020DD
:1002E0000649091F08600648FFF7CCFF581CC3B237
:1002F0000A2BEEDB04200349086000BD140C01400A
:1003000040420F001404014000BFFEE7134880691B
:1003100040F00800114988611148006820F470001D
:100320000F4908600846006840F4401008600B4818
:10033000806940F04000094988610A48006820F45B
:100340007000084908600846006840F440100860E2
:10035000202004491031086070470000001002405E
:10036000000C014000180140014601F00702120292
:10037000054B18684FF6FF031840044B1843104311
:10038000014B1860704700000CED00E00000FA051A
:1003900007210020234A5268234B1A40214B5A6000
:1003A0001A461268214B1A401E4B1A601A461268F0
:1003B00042F480321A6000BF1A4A1268520C002AB6
:1003C000FAD04FF48062174B5A601A46526842EADC
:1003D00081425A601A46526842F480325A60144A86
:1003E000126842F03202124B1A600E4A126842F052
:1003F00080720C4B1A6000BF0A4A1268520E002A23
:10040000FAD0084A526842F00202064B5A6005E0F0
:10041000044A5268C2F3870000F003000228F7D1B3
:1004200070470000001002400000FFF8FFFFF6FEDA
:10043000002002402348806940F040002149886143
:100440002148006820F470601F4908600846006871
:1004500040F40060086004201B491031086019480E
:10046000806940F00100174988611848806820F4CD
:100470007060164988600846806840F48060886033
:100480001348006840F004001149086010480C301F
:10049000006840F004000E490C31086065210D48E9
:1004A00001700D48006820F480704FF0E021C1F821
:1004B00000010846D0F8000140F48070C1F8000146
:1004C0007047000000100240001801400000014089
:1004D0000004014008E400E000E100E024488069F5
:1004E00040F00400224988612248006820F00F0093
:1004F000204908600846006840F0080008601D4870
:100500000C30006840F010001A490C31086018489F
:10051000806940F00100164988611748806820F022
:100520000F00154988600846806888601348006895
:1005300040F001001149086010480C30006840F09C
:1005400001000E490C31086035210D4801700D483D
:10055000006820F040004FF0E021C1F8000108469B
:10056000D0F8000140F04000C1F8000170470000E1
:10057000001002400008014000000140000401405A
:1005800006E400E000E100E000BFFEE770477047CE
:10059000704710B500F002F810BD00000CB5002047
:1005A000019000903348006840F480303149086081
:1005B00000BF3048006800F4003000900198401CF3
:1005C0000190009818B90198B0F5A06FF1D12948B1
:1005D000006800F4003010B10120009001E000201C
:1005E00000900098012843D12348006840F0100093
:1005F000214908600846006820F0030008600846AA
:10060000006840F0020008601A48406819494860D4
:100610000846406848600846406840F4806048608A
:100620000846406820F47C1048600846406840F462
:10063000E81048600846006840F08070086000BF1D
:100640000C48006800F000700028F9D009484068A4
:1006500020F00300074948600846406840F0020067
:10066000486000BF0348406800F00C000828F9D13A
:100670000CBD000000100240002002407047000046
:1006800010B51348006840F00100114908600846A1
:100690004068104908400E494860084600680E4905
:1006A00008400B4908600846006820F48020086074
:1006B0000846406820F4FE0048604FF41F00886040
:1006C000FFF767FF4FF000600449086010BD0000AD
:1006D000001002400000FFF8FFFFF6FE08ED00E00A
:1006E00000BFFEE7FFF754FEFFF710FE0620FFF7FE
:1006F0003BFEFFF79FFEFFF7F1FE20200449086054
:1007000004E004480068401C02490860F9E7000062
:10071000100C0140000000203807000800000020F5
:10072000040000006C0100083C07000804000020E1
:0C073000640600008801000800000000C2
:04000005080001CD21
:00000001FF
