:020000040800F2
:1000000080060020CD010008810500087D0300085E
:100010007D0500087F020008A1070008000000001D
:10002000000000000000000000000000850500083E
:100030008302000800000000830500087106000824
:10004000E7010008E7010008E7010008E7010008F0
:10005000E7010008E701000891020008E701000835
:1000600041030008E7010008E7010008E701000874
:10007000E7010008E7010008E7010008E7010008C0
:10008000E7010008E7010008E7010008E7010008B0
:10009000E7010008E7010008E7010008E7010008A0
:1000A000E7010008E7010008E7010008E701000890
:1000B000E7010008F106000875070008E7010008DD
:1000C000E7010008E7010008E7010008E701000870
:1000D000E7010008E7010008E7010008E701000860
:1000E000CD020008E7010008E7010008E701000869
:1000F000E7010008E7010008E7010008E701000840
:10010000E7010008E7010008E7010008E70100082F
:10011000E7010008E7010008E7010008E70100081F
:10012000E7010008E7010008E7010008E70100080F
:1001300000F002F800F03AF80AA090E8000C8244BF
:100140008344AAF10107DA4501D100F02FF8AFF29C
:10015000090EBAE80F0013F0010F18BFFB1A43F0A5
:1001600001031847BC060000DC060000103A24BF5B
:1001700078C878C1FAD8520724BF30C830C144BF0C
:1001800004680C607047000000230024002500264E
:10019000103A28BF78C1FBD8520728BF30C148BFEA
:1001A0000B6070471FB51FBD10B510BD00F031F8D2
:1001B0001146FFF7F7FF00F0F5FA00F04FF803B42F
:1001C000FFF7F2FF03BC00F053F800000948804736
:1001D00009480047FEE7FEE7FEE7FEE7FEE7FEE729
:1001E000FEE7FEE7FEE7FEE704480549054A064B41
:1001F00070470000910600083101000880000020CF
:100200008006002080020020800200207047704796
:100210007047754600F028F8AE460500694653461B
:1002200020F00700854618B020B5FFF7DDFFBDE8D8
:1002300020404FF000064FF000074FF000084FF04D
:10024000000B21F00701AC46ACE8C009ACE8C009DE
:10025000ACE8C009ACE8C0098D4670470446AFF36E
:1002600000802046FFF7ABFF004870471C000020CD
:1002700001491820ABBEFEE726000200704700BF10
:10028000FEE77047002100E0491C8142FCD3704723
:1002900000B500230EE02020094908600948FFF757
:1002A000F1FF20200649091F08600648FFF7EAFF12
:1002B000581CC3B20A2BEEDB01200349086000BDC5
:1002C0001418014040420F001404014000B51748C3
:1002D0000068F0B11548006809281AD2144800686F
:1002E000400813490860134908601348806800F407
:1002F000806020B10846006840F0800008600D482A
:1003000000680B49086009480068401C07490860FC
:1003100004E006480068401C044908600A20FFF712
:10032000B1FF4FF400600549086000BD14000020D3
:100330000C000020100000200010014014040140B7
:1003400000B500230EE02020094908600948FFF7A6
:1003500099FF20200649091F08600648FFF792FF11
:10036000581CC3B20A2BEEDB04200349086000BD11
:10037000140C014040420F001404014000BFFEE78E
:100380001348806940F008001149886111480068ED
:1003900020F470000F4908600846006840F44010DF
:1003A00008600B48806940F04000094988610A48AC
:1003B000006820F47000084908600846006840F4AE
:1003C0004010086020200449103108607047000088
:1003D00000100240000C014000180140014601F0ED
:1003E00007021202054B18684FF6FF031840044B32
:1003F00018431043014B1860704700000CED00E0FB
:100400000000FA0500204FF0E02108610348486130
:100410000846006940F0030008617047905F0100E2
:10042000124AD26942F00202104BDA61104A10807F
:10043000121F11800E4A203A128842F001020C4B22
:10044000203B1A800A4A2C3A128842F00102084BDB
:100450002C3B1A804523074A1370074A126842F062
:1004600000524FF0E023C3F8002170470010024013
:100470002C0400401DE400E000E100E0124AD269D3
:1004800042F00402104BDA61104A1080121F1180F2
:100490000E4A203A128842F001020C4B203B1A808F
:1004A0000A4A2C3A128842F00102084B2C3B1A806F
:1004B0004523074A1370074A126842F080424FF002
:1004C000E023C3F800217047001002402C080040D0
:1004D0001EE400E000E100E007210020234A52680A
:1004E000234B1A40214B5A601A461268214B1A407E
:1004F0001E4B1A601A46126842F480321A6000BF1E
:100500001A4A1268520C002AFAD04FF48062174B34
:100510005A601A46526842EA81425A601A46526844
:1005200042F480325A60144A126842F03202124B8E
:100530001A600E4A126842F080720C4B1A6000BFBB
:100540000A4A1268520E002AFAD0084A526842F04B
:100550000202064B5A6005E0044A5268C2F3870063
:1005600000F003000228F7D170470000001002409D
:100570000000FFF8FFFFF6FE0020024000BFFEE78C
:1005800070477047704710B500F002F810BD0000CA
:100590000CB50020019000903348006840F4803092
:1005A0003149086000BF3048006800F40030009016
:1005B0000198401C0190009818B90198B0F5A06FFF
:1005C000F1D12948006800F4003010B101200090FA
:1005D00001E0002000900098012843D123480068E2
:1005E00040F01000214908600846006820F0030030
:1005F00008600846006840F0020008601A48406839
:10060000194948600846406848600846406840F418
:10061000806048600846406820F47C1048600846C6
:10062000406840F4E81048600846006840F0807078
:10063000086000BF0C48006800F000700028F9D086
:100640000948406820F003000749486008464068B0
:1006500040F00200486000BF0348406800F00C0012
:100660000828F9D10CBD0000001002400020024013
:1006700005480078401C0449087004480078401C74
:1006800002490870704700000000002001000020AF
:1006900010B51348006840F0010011490860084691
:1006A0004068104908400E494860084600680E49F5
:1006B00008400B4908600846006820F48020086064
:1006C0000846406820F4FE0048604FF41F00886030
:1006D000FFF759FF4FF000600449086010BD0000AB
:1006E000001002400000FFF8FFFFF6FE08ED00E0FA
:1006F00020201E490860091F0860091D0860091FA5
:100700000860081F006880F02000091F0860084684
:10071000006880F0200008600846006880F0200033
:1007200008600846006880F02000086008460068FD
:1007300020F0200008600846006840F020000860B3
:100740000846006820F0200008600846006840F075
:10075000200008600648008820F001000449088055
:100760000846008820F0010008807047140C014002
:10077000100400400848008800F0010028B1074834
:10078000006880F02000054908600348008820F0D8
:100790000100014908807047100800400C18014012
:1007A00000BFFEE7FFF7ECFDFFF796FE0520FFF721
:1007B00015FE41F61F4141F28730FFF731FE41F649
:1007C0001F4140F2E140FFF759FEFFF71BFE1FE01B
:1007D000104800780B281BDB0E480078142190FB92
:1007E000F1F201FB120028B90B48006880F02000EC
:1007F0000949086007480078212190FBF1F201FBCC
:10080000120028B90548006880F0200003490860FC
:10081000DEE70000000000200C0C01400C18014035
:1008200040080008000000201C0000006C010008C7
:100830005C0800081C000020640600008801000815
:100840000000000000000000102700000000000071
:0C0850000000000000000000000000009C
:04000005080001CD21
:00000001FF
