:020000040800F2
:1000000080060020CD0100082D0500087D030008B2
:10001000290500087F0200084D07000800000000C5
:100020000000000000000000000000003105000892
:1000300083020008000000002F0500081D060008CC
:10004000E7010008E7010008E7010008E7010008F0
:10005000E7010008E701000891020008E701000835
:1000600041030008E7010008E7010008E701000874
:10007000E7010008E7010008E7010008E7010008C0
:10008000E7010008E7010008E7010008E7010008B0
:10009000E7010008E7010008E7010008E7010008A0
:1000A000E7010008E7010008E7010008E701000890
:1000B000E70100089D06000821070008E701000885
:1000C000E7010008E7010008E7010008E701000870
:1000D000E7010008E7010008E7010008E701000860
:1000E000CD020008E7010008E7010008E701000869
:1000F000E7010008E7010008E7010008E701000840
:10010000E7010008E7010008E7010008E70100082F
:10011000E7010008E7010008E7010008E70100081F
:10012000E7010008E7010008E7010008E70100080F
:1001300000F002F800F03AF80AA090E8000C8244BF
:100140008344AAF10107DA4501D100F02FF8AFF29C
:10015000090EBAE80F0013F0010F18BFFB1A43F0A5
:10016000010318473006000050060000103A24BF73
:1001700078C878C1FAD8520724BF30C830C144BF0C
:1001800004680C607047000000230024002500264E
:10019000103A28BF78C1FBD8520728BF30C148BFEA
:1001A0000B6070471FB51FBD10B510BD00F031F8D2
:1001B0001146FFF7F7FF00F0CBFA00F04FF803B459
:1001C000FFF7F2FF03BC00F053F800000948804736
:1001D00009480047FEE7FEE7FEE7FEE7FEE7FEE729
:1001E000FEE7FEE7FEE7FEE704480549054A064B41
:1001F000704700003D060008310100088000002023
:100200008006002080020020800200207047704796
:100210007047754600F028F8AE460500694653461B
:1002200020F00700854618B020B5FFF7DDFFBDE8D8
:1002300020404FF000064FF000074FF000084FF04D
:10024000000B21F00701AC46ACE8C009ACE8C009DE
:10025000ACE8C009ACE8C0098D4670470446AFF36E
:1002600000802046FFF7ABFF004870471C000020CD
:1002700001491820ABBEFEE726000200704700BF10
:10028000FEE77047002100E0491C8142FCD3704723
:1002900000B500230EE02020094908600948FFF757
:1002A000F1FF20200649091F08600648FFF7EAFF12
:1002B000581CC3B20A2BEEDB01200349086000BDC5
:1002C0001418014040420F001404014000B51748C3
:1002D0000068F0B11548006809281AD2144800686F
:1002E000400813490860134908601348806800F407
:1002F000806020B10846006840F0800008600D482A
:1003000000680B49086009480068401C07490860FC
:1003100004E006480068401C044908600A20FFF712
:10032000B1FF4FF400600549086000BD14000020D3
:100330000C000020100000200010014014040140B7
:1003400000B500230EE02020094908600948FFF7A6
:1003500099FF20200649091F08600648FFF792FF11
:10036000581CC3B20A2BEEDB04200349086000BD11
:10037000140C014040420F001404014000BFFEE78E
:100380001348806940F008001149886111480068ED
:1003900020F470000F4908600846006840F44010DF
:1003A00008600B48806940F04000094988610A48AC
:1003B000006820F47000084908600846006840F4AE
:1003C0004010086020200449103108607047000088
:1003D00000100240000C014000180140254A9269BB
:1003E00042F00802234B9A61234A126822F47002F9
:1003F000214B1A601A46126842F430021A601D4AF4
:10040000926942F001021B4B9A611C4A526822F425
:1004100040621A4B5A601A46526842F400625A60AF
:10042000144AD26942F00202124BDA61144A108077
:10043000121F1180124A143A128842F4E042104B03
:10044000143B1A801A46128842F400621A800C4A41
:100450000C3A128842F01002094B0C3B1A808022A1
:10046000074B2C3B1A801A46128842F001021A8070
:100470007047000000100240000C014000000140E5
:100480002C04004007210020234A5268234B1A40C5
:10049000214B5A601A461268214B1A401E4B1A60B3
:1004A0001A46126842F480321A6000BF1A4A126873
:1004B000520C002AFAD04FF48062174B5A601A4649
:1004C000526842EA81425A601A46526842F48032C7
:1004D0005A60144A126842F03202124B1A600E4AF5
:1004E000126842F080720C4B1A6000BF0A4A126810
:1004F000520E002AFAD0084A526842F00202064B15
:100500005A6005E0044A5268C2F3870000F0030015
:100510000228F7D170470000001002400000FFF8E9
:10052000FFFFF6FE0020024000BFFEE77047704765
:10053000704710B500F002F810BD00000CB50020A7
:10054000019000903348006840F4803031490860E1
:1005500000BF3048006800F4003000900198401C53
:100560000190009818B90198B0F5A06FF1D1294811
:10057000006800F4003010B10120009001E000207C
:1005800000900098012843D12348006840F01000F3
:10059000214908600846006820F00300086008460A
:1005A000006840F0020008601A4840681949486035
:1005B0000846406848600846406840F480604860EB
:1005C0000846406820F47C1048600846406840F4C3
:1005D000E81048600846006840F08070086000BF7E
:1005E0000C48006800F000700028F9D00948406805
:1005F00020F00300074948600846406840F00200C8
:10060000486000BF0348406800F00C000828F9D19A
:100610000CBD000000100240002002400548007898
:10062000401C0449087004480078401C02490870C6
:1006300070470000000000200100002010B51348A2
:10064000006840F001001149086008464068104900
:1006500008400E494860084600680E4908400B49AA
:1006600008600846006820F480200860084640685A
:1006700020F4FE0048604FF41F008860FFF759FF28
:100680004FF000600449086010BD000000100240F7
:100690000000FFF8FFFFF6FE08ED00E020201E49F5
:1006A0000860091F0860091D0860091F0860081F0D
:1006B000006880F02000091F08600846006880F08C
:1006C000200008600846006880F0200008600846A6
:1006D000006880F0200008600846006820F02000D4
:1006E00008600846006840F020000860084600687E
:1006F00020F0200008600846006840F020000860F4
:100700000648008820F00100044908800846008857
:1007100020F0010008807047140C014010040040D4
:100720000848008800F0010028B10748006880F000
:100730002000054908600348008820F001000149B5
:1007400008807047100800400C18014000BFFEE709
:1007500000240125FFF796FEFFF712FE482141F61F
:100760000A20FFF73BFE12E040F2DC50FFF78AFD63
:1007700015B1601C84B201E0601E84B241F2883081
:10078000844200DD002504B9012501480480EBE71F
:1007900038040040B4070008000000201C000000DE
:1007A0006C010008D00700081C000020640600004F
:1007B0008801000800000000000000001027000071
:1007C0000000000000000000000000000000000029
:04000005080001CD21
:00000001FF
